:100000000C942A000C9447000C9447000C94470071
:100010000C9447000C9447000C9447000C94470044
:100020000C9447000C9447000C9447000C94470034
:100030000C9447000C9447000C9447000C94470024
:100040000C9447000C9447000C9447000C94470014
:100050000C94470011241FBECFE5D4E0DEBFCDBF16
:1000600010E0A0E6B0E0E6EAFDE302C005900D92E4
:10007000AC38B107D9F712E0ACE8B0E001C01D928E
:10008000A73FB107E1F70E9449000C94D11E0C94E0
:100090000000DF93CF93CDB7DEB70E947D0387E3E7
:1000A00090E027E330E0F9012081277FFC012083E5
:1000B00088E390E028E330E0F90120812860FC012A
:1000C00020830E94BA060E9465070E94FD0981E014
:1000D00090E00E940F0987E390E027E330E0F90108
:1000E00020812260FC01208388E390E028E330E057
:1000F000F901308122E02327FC012083A895F4CF69
:10010000DF93CF93CDB7DEB784E390E02CE7FC011B
:10011000208385E390E023E8FC0120830000CF9159
:10012000DF910895DF93CF93CDB7DEB7CF91DF9105
:100130000895DF93CF930F92CDB7DEB7898382E323
:1001400090E022E330E0F90120812062FC0120836D
:1001500085E390E025E330E0F9012081277FFC0171
:10016000208385E390E025E330E0F90120812F7DB5
:10017000FC01208385E390E025E330E0F901208154
:100180002064FC01208385E390E025E330E0F90161
:1001900020812061FC01208385E390E025E330E0AD
:1001A000F90120812B7FFC0120838AE390E02FEF6F
:1001B000FC0120838BE390E02981FC01208385E30F
:1001C00090E025E330E0F90120812460FC012083E8
:1001D00085E390E025E330E0F90120812F7EFC01EA
:1001E00020830F90CF91DF910895DF93CF930F92EB
:1001F000CDB7DEB7898382E390E022E330E0F901F6
:1002000020812062FC01208385E390E025E330E03B
:10021000F90120812F7DFC01208385E390E025E317
:1002200030E0F90120812064FC01208385E390E027
:1002300025E330E0F90120812F7EFC01208385E356
:1002400090E025E330E0F90120812860FC01208363
:1002500085E390E025E330E0F90120812B7FFC016C
:1002600020838AE390E02FEFFC0120838BE390E072
:100270002981FC01208385E390E025E330E0F9014A
:1002800020812460FC01208385E390E025E330E0B9
:10029000F9012081277FFC0120830F90CF91DF910E
:1002A0000895DF93CF930F92CDB7DEB7898382E3B2
:1002B00090E022E330E0F90120812062FC012083FC
:1002C00085E390E025E330E0F90120812064FC0122
:1002D000208385E390E025E330E0F90120812F7E43
:1002E000FC01208385E390E025E330E0F9012081E3
:1002F0002F7DFC01208385E390E025E330E0F901C8
:100300002081277FFC01208385E390E025E330E016
:10031000F90120812B7FFC0120838AE390E02FEFFD
:10032000FC0120838BE390E02981FC01208385E39D
:1003300090E025E330E0F90120812460FC01208376
:100340000F90CF91DF910895DF93CF930F92CDB7A8
:10035000DEB782E390E022E330E0F9012081206201
:10036000FC012083000083E390E0FC01808188236E
:10037000D4F785E390E025E330E0F90120812F7E7A
:10038000FC01208385E390E025E330E0F901208142
:100390002F7DFC01208385E390E025E330E0F90127
:1003A00020812460FC01208385E390E025E330E098
:1003B000F9012081277FFC01208385E390E025E37C
:1003C00030E0F90120812F7BFC01208300008AE3CB
:1003D00090E0FC01108289E390E0FC018081898338
:1003E00085E390E025E330E0F90120812064FC0101
:1003F000208389810F90CF91DF910895DF93CF9370
:10040000CDB7DEB78FEF0E949900CF91DF910895AD
:10041000DF93CF930F92CDB7DEB780E70E949900AC
:100420000E94A401898385E390E025E330E0F9018F
:1004300020812062FC01208389810F90CF91DF9180
:100440000895DF93CF9300D000D0CDB7DEB780E919
:100450000E94990080E00E94F5000E94A401898317
:100460000E94A4018A830E94A4018B830E94A4019C
:100470008C8385E390E025E330E0F9012081206260
:10048000FC01208389818C3E49F48A81863731F4CE
:100490008B81853A19F48C81803C11F080E001C099
:1004A00081E00F900F900F900F90CF91DF91089502
:1004B0000F931F93DF93CF93CDB7DEB729970FB676
:1004C000F894DEBF0FBECDBF9E838D8378876F8388
:1004D00049878F8198859B838A838D818C8380E077
:1004E0000E94990080E00E94F5008C810E94F50036
:1004F00080E00E94F5008C81882F90E0990F880B96
:10050000982F81700E94F50019820FC08981882F71
:1005100090E02A813B818901080F191F0E94A401E4
:10052000F801808389818F5F8983998189859817F4
:1005300068F385E390E025E330E0F9012081206253
:10054000FC01208329960FB6F894DEBF0FBECDBF05
:10055000CF91DF911F910F910895DF93CF93CDB786
:10056000DEB72C970FB6F894DEBF0FBECDBF9987CC
:1005700088877B876A874C878A859B859C838B834A
:10058000888599859E838D8380E80E94990080E00C
:100590000E94F5008D810E94F5008D819E81892F3A
:1005A00099270E94F5008D819E8199278827817067
:1005B0000E94F5001A8219820FC02B813C8189812B
:1005C0009A81820F931FFC0180810E9451018981D1
:1005D0009A8101969A8389838C85282F30E08981BE
:1005E0009A818217930748F380E10E9499000000E6
:1005F00083E390E0FC0180818823D4F70E94080205
:100600008F838F81882F90E081709070882311F004
:1006100080E001C081E02C960FB6F894DEBF0FBEDB
:10062000CDBFCF91DF910895DF93CF9300D000D05D
:100630000F92CDB7DEB79D838C838C819D81880F0F
:10064000991F82959295907F9827807F98279A830B
:10065000898380E60E94990089810E94F500898142
:100660009A81892F99270E94F50089819A8199277B
:10067000882781700E94F50080ED0E94990000009B
:10068000000083E390E0FC0180818823D4F70E947E
:1006900008028B838B81882F90E081709070882373
:1006A00011F080E001C081E00F900F900F900F904B
:1006B0000F90CF91DF910895DF93CF9300D0CDB706
:1006C000DEB71A8219820DC089819A810E941403B3
:1006D000882311F480E00CC089819A8101969A8365
:1006E000898389819A8128E08030920768F381E0CC
:1006F0000F900F90CF91DF910895DF93CF93CDB7F7
:10070000DEB787E390E027E330E0F9012081206144
:10071000FC01208388E390E028E330E0F9012081A8
:100720002861FC012083CF91DF910895DF93CF935F
:10073000CDB7DEB787E390E027E330E0F901208111
:100740002061FC01208388E390E028E330E0F90198
:1007500020812061FC01208381E190E00E94460617
:1007600087E390E027E330E0F9012081277FFC0157
:10077000208388E390E028E330E0F90120812860BD
:10078000FC01208381E190E00E94460687E390E02F
:1007900027E330E0F90120812860FC01208388E311
:1007A00090E028E330E0F9012081277FFC012083DD
:1007B00081E190E00E944606CF91DF910895DF939A
:1007C000CF93CDB7DEB70E949603CF91DF91089506
:1007D000DF93CF93CDB7DEB787E390E027E330E038
:1007E000F90120812860FC01208388E390E028E360
:1007F00030E0F9012081277FFC01208381E190E036
:100800000E94460687E390E027E330E0F90120816B
:100810002061FC01208388E390E028E330E0F901C7
:1008200020812F7EFC01208381E190E00E9446061A
:1008300087E390E027E330E0F90120812061FC01AB
:10084000208388E390E028E330E0F90120812061F3
:10085000FC01208381E190E00E94460687E390E05E
:1008600027E330E0F9012081277FFC01208388E322
:1008700090E028E330E0F90120812860FC0120832A
:1008800081E190E00E944606CF91DF910895DF93C9
:10089000CF9300D0CDB7DEB78A8387E390E027E31C
:1008A00030E0F90120812061FC01208388E390E0A1
:1008B00028E330E0F90120812F7EFC01208387E0CE
:1008C00090E00E944606198262C08A818823BCF4A7
:1008D00087E390E027E330E0F9012081277FFC01E6
:1008E000208388E390E028E330E0F901208128604C
:1008F000FC01208383E090E00E94460616C087E357
:1009000090E027E330E0F90120812860FC0120839A
:1009100088E390E028E330E0F9012081277FFC01A3
:10092000208383E090E00E94460687E390E027E37F
:1009300030E0F90120812061FC01208388E390E010
:1009400028E330E0F90120812061FC01208383E06D
:1009500090E00E94460687E390E027E330E0F9014B
:1009600020812061FC01208388E390E028E330E0CF
:10097000F90120812F7EFC01208382E090E00E941B
:1009800046068A81880F8A8389818F5F898389815E
:10099000883008F49ACF87E390E027E330E0F9014C
:1009A0002081277FFC01208388E390E028E330E06A
:1009B000F90120812860FC0120838AE090E00E94F8
:1009C000460687E390E027E330E0F90120812061CB
:1009D000FC01208388E390E028E330E0F9012081E6
:1009E0002061FC01208383E090E00E94460686E3BC
:1009F00090E0FC018081882F90E0887090700097D3
:100A000011F00E9463060F900F90CF91DF9108952F
:100A1000DF93CF9300D0CDB7DEB78A8387E390E032
:100A200027E330E0F90120812061FC01208388E385
:100A300090E028E330E0F90120812F7EFC01208343
:100A400087E090E00E944606198262C08A8188236E
:100A5000BCF487E390E027E330E0F9012081277FB1
:100A6000FC01208388E390E028E330E0F901208155
:100A70002860FC01208383E090E00E94460616C0B7
:100A800087E390E027E330E0F90120812860FC0152
:100A9000208388E390E028E330E0F9012081277F7C
:100AA000FC01208383E090E00E94460687E390E00B
:100AB00027E330E0F90120812061FC01208388E3F5
:100AC00090E028E330E0F90120812061FC012083DF
:100AD00083E090E00E94460687E390E027E330E061
:100AE000F90120812061FC01208388E390E028E364
:100AF00030E0F90120812F7EFC01208382E090E02C
:100B00000E9446068A81880F8A8389818F5F898344
:100B10008981883008F49ACF87E390E027E330E0BA
:100B2000F9012081277FFC01208388E390E028E3FE
:100B300030E0F90120812860FC0120838AE090E008
:100B40000E94460687E390E027E330E0F901208128
:100B50002061FC01208388E390E028E330E0F90184
:100B600020812061FC01208383E090E00E94460602
:100B700086E390E0FC018081882F90E0887090707F
:100B8000009711F00E9463060F900F90CF91DF91B4
:100B90000895DF93CF9300D0CDB7DEB71A8287E3F5
:100BA00090E027E330E0F9012081277FFC012083DA
:100BB00088E390E028E330E0F90120812860FC011F
:100BC000208380E090E00E94460687E390E027E3E0
:100BD00030E0F90120812061FC01208388E390E06E
:100BE00028E330E0F90120812F7EFC01208385E09D
:100BF00090E00E94460619823FC087E390E027E319
:100C000030E0F90120812061FC01208388E390E03D
:100C100028E330E0F90120812061FC01208387E096
:100C200090E00E9446068A81880F8A8386E390E0DE
:100C3000FC018081882F90E088709070009719F0F7
:100C40008A8181608A8387E390E027E330E0F901BD
:100C500020812061FC01208388E390E028E330E0DC
:100C6000F90120812F7EFC01208385E090E00E9425
:100C7000460689818F5F89838981883008F4BDCFDA
:100C80008A810F900F90CF91DF910895DF93CF93DA
:100C900000D0CDB7DEB79A8389830CC00000000076
:100CA0000000000000000000000089819A81019787
:100CB0009A83898389819A81009781F70F900F9099
:100CC000CF91DF910895DF93CF93CDB7DEB784E363
:100CD00090E024E330E0F90120812260FC012083D0
:100CE00085E390E025E330E0F901308122E023271D
:100CF000FC012083A895F4CFDF93CF9300D00F920F
:100D0000CDB7DEB789836A834B830E9496038981BE
:100D10000E9447048A810E9408058B810E94080571
:100D20000E94E8030F900F900F90CF91DF910895EC
:100D3000DF93CF9300D00F92CDB7DEB78A836B835A
:100D40000E9496038A818E7F0E9447048B810E94B5
:100D500008050E94DF038A810E9447040E94C9059A
:100D600089830E94E80389810F900F900F90CF91A3
:100D7000DF910895DF93CF9300D0CDB7DEB78AE43B
:100D800061E048E00E947C068AE462E041EC0E9457
:100D90007C068AE463E043E20E947C068AE464E025
:100DA00040E00E947C068AE465E040E00E947C0608
:100DB0008AE466E04BEE0E947C068AE467E040EE3F
:100DC0000E947C068AE468E048E80E947C068AE487
:100DD00069E041E00E947C068AE46AE040E80E9403
:100DE0007C068AE46BE047E40E947C068AE46CE0BF
:100DF00040E40E947C068AE46DE040E00E947C06AC
:100E00008AE46EE041E00E947C068AE46FE04AE2F8
:100E10000E947C068AE460E140E00E947C068AE44D
:100E200061E14CE00E947C068AE462E14EE70E94A8
:100E30007C068AE463E141E00E947C068AE465E185
:100E400040E00E947C068AE466E140E00E947C0665
:100E50008AE467E140E00E947C068AE460E442E0C4
:100E60000E947C0681E490E09A8389830BC099817B
:100E70008AE4692F4FEF0E947C0689819A8101964E
:100E80009A83898389819A818835910584F38AE4DC
:100E900068E540E00E947C068AE469E544E50E943A
:100EA0007C068AE46AE547E00E947C068AE46BE5FA
:100EB00043E80E947C068AE46EE540E00E947C06DE
:100EC0000F900F90CF91DF910895DF93CF93CDB71F
:100ED000DEB788E866E240E00E947C0688E867E2C8
:100EE00040E00E947C0688E868E241EA0E947C06B5
:100EF00088E869E24DE10E947C0688E86AE240E801
:100F00000E947C0688E86BE240E80E947C0688E844
:100F10006CE240E80E947C0688E86DE240E80E94AE
:100F20007C0688E86EE240E00E947C0688E86AE37E
:100F300043E10E947C0688E86AE540E00E947C0666
:100F400088E86BE54DE70E947C0688E86CE54FEA8F
:100F50000E947C0688E86DE54AE60E947C0688E8E7
:100F60006EE545E70E947C0688E86FE545E30E9450
:100F70007C0688E861E646E20E947C0688E862E634
:100F80004FEA0E947C0688E863E64BEC0E947C06F0
:100F900088E864E64AE80E947C0688E865E649E05D
:100FA0000E947C0688E866E64AE20E947C0688E8A1
:100FB00067E640E80E947C0688E868E640E80E9410
:100FC0007C0688E869E640E80E947C0688E86AE6D4
:100FD00040E80E947C0688E86BE640E20E947C06BE
:100FE00088E86CE645E00E947C0688E86DE640E211
:100FF0000E947C0688E86EE640E20E947C0688E853
:101000006FE644E10E947C0688E860E740E80E94C1
:101010007C0688E861E748EE0E947C0688E862E783
:1010200040E10E947C0688E863E742E40E947C0677
:1010300088E864E743E00E947C0688E865E743E0CF
:101040000E947C0688E866E745E00E947C0688E806
:1010500067E746E10E947C0688E868E744E00E9472
:101060007C0688E869E746E10E947C0688E86AE732
:1010700048E10E947C0688E86BE748E30E947C0612
:1010800088E86CE740E40E947C0688E86EE740E070
:101090000E947C0688E86FE740E00E947C06CF91C2
:1010A000DF910895DF93CF9300D000D0CDB7DEB7A6
:1010B00069837A838B839C8381E390E021E330E032
:1010C000F90120812466FC01208382E390E022E381
:1010D00030E0F90120812F7DFC01208382E390E044
:1010E00022E330E0F90120812460FC01208387E3C2
:1010F00090E027E330E0F90120812360FC012083A8
:1011000088E390E028E330E0F90120812360FC01CE
:10111000208381E390E021E330E0F90120812F7BFF
:10112000FC0120832BE330E089819A81AB81BC8173
:10113000CD01AA27BB27F901808381E390E021E359
:1011400030E0F90120812064FC01208388E390E0F5
:1011500028E330E0F90120812E7FFC01208381E328
:1011600090E021E330E0F90120812F7BFC01208316
:101170002BE330E089819A81AB81BC81892F9A2F42
:10118000AB2FBB27F901808381E390E021E330E0BE
:10119000F90120812064FC01208388E390E028E3AA
:1011A00030E0F90120812D7FFC01208388E390E06D
:1011B00028E330E0F90120812160FC01208381E3F4
:1011C00090E021E330E0F90120812F7BFC012083B6
:1011D0008BE390E02981FC01208381E390E021E30F
:1011E00030E0F90120812064FC01208388E390E055
:1011F00028E330E0F90120812C7FFC01208382E389
:1012000090E022E330E0F90120812B7FFC01208374
:101210000F900F900F900F90CF91DF910895DF9373
:10122000CF93CDB7DEB72D970FB6F894DEBF0FBEC4
:10123000CDBF8D878D85880F880F8D838D81882FF9
:1012400090E0805A9F4FFC0180818E838D818F5F5B
:101250008D838D81882F90E0805A9F4FFC01808183
:101260008F838D818F5F8D838D81882F90E0805A51
:101270009F4FFC01808188871A821982A6C08981CC
:101280009A81880F991F82959295907F9827807FE9
:101290009827AA2797FDA095BA2F89879A87AB87A9
:1012A000BC8789859A85AB85BC85BC01CD010E9430
:1012B000520881E390E021E330E0F90120812460CD
:1012C000FC01208382E390E022E330E0F9012081F9
:1012D0002B7FFC01208388E390E028E330E0F901D4
:1012E00020812C7FFC012083A8951C821B8261C079
:1012F0008BE390E02F81FC01208382E390E022E3E6
:1013000030E0F90120812F7BFC01208382E390E013
:1013100022E330E0F90120812064FC0120838BE38B
:1013200090E02E81FC01208382E390E022E330E014
:10133000F90120812F7BFC01208382E390E022E3EE
:1013400030E0F90120812064FC0120838BE390E0F0
:101350002885FC01208382E390E022E330E0F9015C
:1013600020812F7BFC01208382E390E022E330E0A8
:10137000F90120812064FC0120838BE390E02E8121
:10138000FC01208382E390E022E330E0F901208138
:101390002F7BFC01208382E390E022E330E0F9011F
:1013A00020812064FC0120838B819C8101969C8399
:1013B0008B838B819C81FBE080349F070CF498CF5A
:1013C00089819A8101969A83898389819A818D3254
:1013D00091050CF454CF82E390E022E330E0F90170
:1013E00020812062FC0120832D960FB6F894DEBF89
:1013F0000FBECDBFCF91DF910895DF93CF93CDB7CF
:10140000DEB728970FB6F894DEBF0FBECDBF1A82A5
:10141000198291C089819A81880F991F829592952E
:10142000907F9827807F9827AA2797FDA095BA2FAD
:101430008D839E83AF83B8878D810E940F0981E3DE
:1014400090E021E330E0F90120812460FC01208359
:1014500082E390E022E330E0F90120812B7FFC0160
:10146000208388E390E028E330E0F90120812C7F9D
:10147000FC0120838BE390E0FC011082A8951C8284
:101480001B824DC082E390E022E330E0F90120812D
:101490002F7BFC01208382E390E022E330E0F9011E
:1014A00020812064FC01208382E390E022E330E08D
:1014B000F90120812F7BFC01208382E390E022E36D
:1014C00030E0F90120812064FC01208382E390E078
:1014D00022E330E0F90120812F7BFC01208382E3AD
:1014E00090E022E330E0F90120812064FC012083B8
:1014F00082E390E022E330E0F90120812F7BFC01C0
:10150000208382E390E022E330E0F901208120642F
:10151000FC0120838B819C8101969C838B838B8132
:101520009C81FBE080349F070CF4ACCF89819A81C9
:1015300001969A83898389819A818D3291050CF471
:1015400069CF82E390E022E330E0F901208120625C
:10155000FC01208328960FB6F894DEBF0FBECDBFE6
:10156000CF91DF910895DF93CF93CDB7DEB72D975D
:101570000FB6F894DEBF0FBECDBF8D878D85880F67
:10158000880F8D838D81882F90E0805A9F4FFC01BA
:1015900080818E838D818F5F8D838D81882F90E0F8
:1015A000805A9F4FFC0180818F838D818F5F8D8357
:1015B0008D81882F90E0805A9F4FFC018081888721
:1015C0001A821982A9C089819A81880F991F8295F0
:1015D0009295907F9827807F9827AA2797FDA095BE
:1015E000BA2F805C9148AA4FBF4F89879A87AB87F3
:1015F000BC8789859A85AB85BC85BC01CD010E94DD
:10160000520881E390E021E330E0F9012081246079
:10161000FC01208382E390E022E330E0F9012081A5
:101620002B7FFC01208388E390E028E330E0F90180
:1016300020812C7FFC012083A8951C821B8261C025
:101640008BE390E02F81FC01208382E390E022E392
:1016500030E0F90120812F7BFC01208382E390E0C0
:1016600022E330E0F90120812064FC0120838BE338
:1016700090E02E81FC01208382E390E022E330E0C1
:10168000F90120812F7BFC01208382E390E022E39B
:1016900030E0F90120812064FC0120838BE390E09D
:1016A0002885FC01208382E390E022E330E0F90109
:1016B00020812F7BFC01208382E390E022E330E055
:1016C000F90120812064FC0120838BE390E02E81CE
:1016D000FC01208382E390E022E330E0F9012081E5
:1016E0002F7BFC01208382E390E022E330E0F901CC
:1016F00020812064FC0120838B819C8101969C8346
:101700008B838B819C81803F91050CF499CF8981DB
:101710009A8101969A83898389819A818D32910574
:101720000CF451CF2D960FB6F894DEBF0FBECDBF8F
:10173000CF91DF910895DF93CF93CDB7DEB7289790
:101740000FB6F894DEBF0FBECDBF1A82198299C0C2
:1017500089819A81880F991F82959295907F982709
:10176000807F9827AA2797FDA095BA2F805C914883
:10177000AA4FBF4F8D839E83AF83B8878D819E8193
:10178000AF81B885BC01CD010E94520881E390E091
:1017900021E330E0F90120812460FC01208382E311
:1017A00090E022E330E0F90120812B7FFC012083CF
:1017B00088E390E028E330E0F90120812C7FFC01F0
:1017C00020838BE390E0FC011082A8951C821B8291
:1017D0004DC082E390E022E330E0F90120812F7BCD
:1017E000FC01208382E390E022E330E0F9012081D4
:1017F0002064FC01208382E390E022E330E0F901E1
:1018000020812F7BFC01208382E390E022E330E003
:10181000F90120812064FC01208382E390E022E32F
:1018200030E0F90120812F7BFC01208382E390E0EE
:1018300022E330E0F90120812064FC01208382E36F
:1018400090E022E330E0F90120812F7BFC0120832E
:1018500082E390E022E330E0F90120812064FC0182
:1018600020838B819C8101969C838B838B819C81BF
:10187000803F91050CF4ADCF89819A8101969A83BE
:10188000898389819A818D3291050CF461CF2896E4
:101890000FB6F894DEBF0FBECDBFCF91DF91089594
:1018A0000F931F93DF93CF93CDB7DEB76A970FB631
:1018B000F894DEBF0FBECDBF8D8B6E8B4F8B288F04
:1018C0001A8F098F888D880F880F89878F89880FD5
:1018D000880F8A878985882F90E0805A9F4FFC0166
:1018E00080818B8789858F5F89878985882F90E0A4
:1018F000805A9F4FFC0180818C8789858F5F898703
:101900008985882F90E0805A9F4FFC0180818D87C8
:101910008A85882F90E0805A9F4FFC0180818E87B6
:101920008A858F5F8A878A85882F90E0805A9F4FAB
:10193000FC0180818F878A858F5F8A878A85882FBF
:1019400090E0805A9F4FFC018081888B898D9A8D11
:101950009C0122953295307F3227207F322780915B
:10196000F5029091F602820F931F9A8B898B8D89D5
:10197000482F50E02EE530E0429FC001439F900D7C
:10198000529F900D11249C012E513B438E89882F2C
:1019900090E0815A9040820F931F9C8B8B8B4091DB
:1019A000F3025091F40220E137E2429FC001439FCD
:1019B000900D529F900D11242B893C89820F931F0B
:1019C0009C8B8B8B8B899C8921EF30E0B90144EE95
:1019D0000E9458021C821B825CC18B819C81880FF3
:1019E000991F82959295907F9827807F98279C01D8
:1019F00089899A89820F931FCC01A0E0B0E0BC01D5
:101A0000CD010E9452088B819C819E838D8336C1BB
:101A10008D819E818F509F4FFC01808189838D81B4
:101A20009E8184968F509F4FFC0180818A83188607
:101A30001F8219C1898188230CF4AEC08A81882352
:101A40000CF44DC08BE390E0FC01108282E390E047
:101A500022E330E0F90120812F7BFC01208382E327
:101A600090E022E330E0F90120812064FC01208332
:101A700082E390E022E330E0F90120812F7BFC013A
:101A8000208382E390E022E330E0F90120812064AA
:101A9000FC01208382E390E022E330E0F901208121
:101AA0002F7BFC01208382E390E022E330E0F90108
:101AB00020812064FC01208382E390E022E330E077
:101AC000F90120812F7BFC01208382E390E022E357
:101AD00030E0F90120812064FC012083B9C08BE350
:101AE00090E02F85FC01208382E390E022E330E048
:101AF000F90120812F7BFC01208382E390E022E327
:101B000030E0F90120812064FC0120838BE390E028
:101B10002E85FC01208382E390E022E330E0F9018E
:101B200020812F7BFC01208382E390E022E330E0E0
:101B3000F90120812064FC0120838BE390E0288957
:101B4000FC01208382E390E022E330E0F901208170
:101B50002F7BFC01208382E390E022E330E0F90157
:101B600020812064FC0120838BE390E02E85FC0122
:101B7000208382E390E022E330E0F90120812F7B93
:101B8000FC01208382E390E022E330E0F901208130
:101B90002064FC0120835CC08BE390E02C85FC0179
:101BA000208382E390E022E330E0F90120812F7B63
:101BB000FC01208382E390E022E330E0F901208100
:101BC0002064FC0120838BE390E02B85FC012083C3
:101BD00082E390E022E330E0F90120812F7BFC01D9
:101BE000208382E390E022E330E0F9012081206449
:101BF000FC0120838BE390E02D85FC01208382E3B0
:101C000090E022E330E0F90120812F7BFC0120836A
:101C100082E390E022E330E0F90120812064FC01BE
:101C200020838BE390E02B85FC01208382E390E00E
:101C300022E330E0F90120812F7BFC01208382E345
:101C400090E022E330E0F90120812064FC01208350
:101C50008981880F89838A81880F8A838F819885FB
:101C6000019698878F838F819885883091050CF431
:101C7000E1CE8D819E8102969E838D838D819E8192
:101C8000843291050CF4C4CE8B819C8101969C8397
:101C90008B838B819C81823091050CF49ECE82E3F4
:101CA00090E022E330E0F90120812062FC012083F2
:101CB0006A960FB6F894DEBF0FBECDBFCF91DF910D
:101CC0001F910F9108950F931F93DF93CF93CDB77B
:101CD000DEB76A970FB6F894DEBF0FBECDBF8D8B0F
:101CE0006E8B4F8B288F1A8F098F888D880F880FE6
:101CF00089878F89880F880F8A878985882F90E048
:101D0000805A9F4FFC0180818B8789858F5F8987EF
:101D10008985882F90E0805A9F4FFC0180818C87B5
:101D200089858F5F89878985882F90E0805A9F4FAA
:101D3000FC0180818D878A85882F90E0805A9F4F93
:101D4000FC0180818E878A858F5F8A878A85882FAC
:101D500090E0805A9F4FFC0180818F878A858F5F3A
:101D60008A878A85882F90E0805A9F4FFC01808166
:101D7000888B898D9A8D9C0122953295307F3227F0
:101D8000207F32278091F5029091F602820F931FF7
:101D90009A8B898B8D89482F50E02EE530E0429F49
:101DA000C001439F900D529F900D11249C012E5114
:101DB0003B438E89882F90E0815A9040820F931F79
:101DC0009C8B8B8B4091F1025091F20220E137E223
:101DD000429FC001439F900D529F900D11242B896B
:101DE0003C89820F931F9C8B8B8B8B899C8921EF65
:101DF00030E0B90144EE0E9458021C821B825DC192
:101E00008B819C81880F991F82959295907F98274E
:101E1000807F98279C0189899A89820F931FCC0122
:101E2000A0E0B0E0BC01CD010E9452088B819C81F2
:101E30009E838D8337C18D819E818F509F4FFC0182
:101E4000808189838D819E81825B9F4F8F509F4FC0
:101E5000FC0180818A8318861F8219C189818823A9
:101E60000CF4AEC08A8188230CF44DC08BE390E063
:101E7000FC01108282E390E022E330E0F90120814E
:101E80002F7BFC01208382E390E022E330E0F90124
:101E900020812064FC01208382E390E022E330E093
:101EA000F90120812F7BFC01208382E390E022E373
:101EB00030E0F90120812064FC01208382E390E07E
:101EC00022E330E0F90120812F7BFC01208382E3B3
:101ED00090E022E330E0F90120812064FC012083BE
:101EE00082E390E022E330E0F90120812F7BFC01C6
:101EF000208382E390E022E330E0F9012081206436
:101F0000FC012083B9C08BE390E02F85FC01208386
:101F100082E390E022E330E0F90120812F7BFC0195
:101F2000208382E390E022E330E0F9012081206405
:101F3000FC0120838BE390E02E85FC01208382E36B
:101F400090E022E330E0F90120812F7BFC01208327
:101F500082E390E022E330E0F90120812064FC017B
:101F600020838BE390E02889FC01208382E390E0CA
:101F700022E330E0F90120812F7BFC01208382E302
:101F800090E022E330E0F90120812064FC0120830D
:101F90008BE390E02E85FC01208382E390E022E336
:101FA00030E0F90120812F7BFC01208382E390E067
:101FB00022E330E0F90120812064FC0120835CC031
:101FC0008BE390E02C85FC01208382E390E022E308
:101FD00030E0F90120812F7BFC01208382E390E037
:101FE00022E330E0F90120812064FC0120838BE3AF
:101FF00090E02B85FC01208382E390E022E330E037
:10200000F90120812F7BFC01208382E390E022E311
:1020100030E0F90120812064FC0120838BE390E013
:102020002D85FC01208382E390E022E330E0F9017A
:1020300020812F7BFC01208382E390E022E330E0CB
:10204000F90120812064FC0120838BE390E02B8543
:10205000FC01208382E390E022E330E0F90120815B
:102060002F7BFC01208382E390E022E330E0F90142
:1020700020812064FC0120838981880F89838A81E3
:10208000880F8A838F819885019698878F838F81A7
:102090009885883091050CF4E1CE8D819E81039660
:1020A0009E838D838D819E818E3491050CF4C3CEE9
:1020B0008B819C8101969C838B838B819C81833057
:1020C00091050CF49DCE82E390E022E330E0F9012B
:1020D00020812062FC0120836A960FB6F894DEBF4F
:1020E0000FBECDBFCF91DF911F910F9108950F9338
:1020F0001F93DF93CF93CDB7DEB76A970FB6F894EF
:10210000DEBF0FBECDBF8D8B6E8B4F8B288F1A8F8E
:10211000098F888D880F880F89878F89880F880F8E
:102120008A878985882F90E0805A9F4FFC018081A3
:102130008B8789858F5F89878985882F90E0805A72
:102140009F4FFC0180818C8789858F5F8987898576
:10215000882F90E0805A9F4FFC0180818D878A856F
:10216000882F90E0805A9F4FFC0180818E878A855E
:102170008F5F8A878A85882F90E0805A9F4FFC0165
:1021800080818F878A858F5F8A878A85882F90E0F4
:10219000805A9F4FFC018081888B898D9A8D9C018C
:1021A00022953295307F3227207F32278091F502A9
:1021B0009091F602820F931F9A8B898B8D89482FFD
:1021C00050E02EE530E0429FC001439F900D529FAA
:1021D000900D11249C012E513B438E89882F90E055
:1021E000815A9040820F931F9C8B8B8B4091F302FE
:1021F0005091F40220E137E2429FC001439F900DCD
:10220000529F900D11242B893C89820F931F9C8B28
:102210008B8B8B899C8921EF30E0B90144EE0E94C1
:1022200058021C821B820BC18B819C81880F991FD5
:1022300082959295907F9827807F98279C01898925
:102240009A89820F931FCC01A0E0B0E0BC01CD01C0
:102250000E9452088B819C819E838D83E5C08D8175
:102260009E818F509F4FFC01808189838D819E814B
:1022700084968F509F4FFC0180818A8318861F822D
:10228000C8C0898188230CF45DC08BE390E02C8565
:10229000FC01208382E390E022E330E0F901208119
:1022A0002F7BFC01208382E390E022E330E0F90100
:1022B00020812064FC0120838BE390E02B85FC01CE
:1022C000208382E390E022E330E0F90120812F7B3C
:1022D000FC01208382E390E022E330E0F9012081D9
:1022E0002064FC0120838BE390E02D85FC0120839A
:1022F00082E390E022E330E0F90120812F7BFC01B2
:10230000208382E390E022E330E0F9012081206421
:10231000FC0120838BE390E02B85FC01208382E38A
:1023200090E022E330E0F90120812F7BFC01208343
:1023300082E390E022E330E0F90120812064FC0197
:1023400020835CC08BE390E02F85FC01208382E337
:1023500090E022E330E0F90120812F7BFC01208313
:1023600082E390E022E330E0F90120812064FC0167
:1023700020838BE390E02E85FC01208382E390E0B4
:1023800022E330E0F90120812F7BFC01208382E3EE
:1023900090E022E330E0F90120812064FC012083F9
:1023A0008BE390E02889FC01208382E390E022E324
:1023B00030E0F90120812F7BFC01208382E390E053
:1023C00022E330E0F90120812064FC0120838BE3CB
:1023D00090E02E85FC01208382E390E022E330E050
:1023E000F90120812F7BFC01208382E390E022E32E
:1023F00030E0F90120812064FC0120838981880F6D
:1024000089838A81880F8A838F819885019698872E
:102410008F838F819885883091050CF432CF8D8120
:102420009E8102969E838D838D819E81843291054B
:102430000CF415CF8B819C8101969C838B838B81BF
:102440009C81823091050CF4EFCE82E390E022E390
:1024500030E0F90120812062FC0120836A960FB6EA
:10246000F894DEBF0FBECDBFCF91DF911F910F91CA
:1024700008950F931F93DF93CF93CDB7DEB76A977D
:102480000FB6F894DEBF0FBECDBF8D8B6E8B4F8B1A
:10249000288F1A8F098F888D880F880F89878F89D9
:1024A000880F880F8A878985882F90E0805A9F4FF0
:1024B000FC0180818B8789858F5F89878985882F3B
:1024C00090E0805A9F4FFC0180818C8789858F5FC7
:1024D00089878985882F90E0805A9F4FFC018081F1
:1024E0008D878A85882F90E0805A9F4FFC018081DC
:1024F0008E878A858F5F8A878A85882F90E0805AA9
:102500009F4FFC0180818F878A858F5F8A878A85AC
:10251000882F90E0805A9F4FFC018081888B898DA5
:102520009A8D9C0122953295307F3227207F322769
:102530008091F5029091F602820F931F9A8B898BFE
:102540008D89482F50E02EE530E0429FC001439F27
:10255000900D529F900D11249C012E513B438E896A
:10256000882F90E0815A9040820F931F9C8B8B8B19
:102570004091F1025091F20220E137E2429FC00106
:10258000439F900D529F900D11242B893C89820FFF
:10259000931F9C8B8B8B8B899C8921EF30E0B90139
:1025A00044EE0E9458021C821B820CC18B819C81CC
:1025B000880F991F82959295907F9827807F982702
:1025C0009C0189899A89820F931FCC01A0E0B0E019
:1025D000BC01CD010E9452088B819C819E838D831A
:1025E000E6C08D819E818F509F4FFC018081898341
:1025F0008D819E81825B9F4F8F509F4FFC01808118
:102600008A8318861F82C8C0898188230CF45DC024
:102610008BE390E02C85FC01208382E390E022E3B1
:1026200030E0F90120812F7BFC01208382E390E0E0
:1026300022E330E0F90120812064FC0120838BE358
:1026400090E02B85FC01208382E390E022E330E0E0
:10265000F90120812F7BFC01208382E390E022E3BB
:1026600030E0F90120812064FC0120838BE390E0BD
:102670002D85FC01208382E390E022E330E0F90124
:1026800020812F7BFC01208382E390E022E330E075
:10269000F90120812064FC0120838BE390E02B85ED
:1026A000FC01208382E390E022E330E0F901208105
:1026B0002F7BFC01208382E390E022E330E0F901EC
:1026C00020812064FC0120835CC08BE390E02F8597
:1026D000FC01208382E390E022E330E0F9012081D5
:1026E0002F7BFC01208382E390E022E330E0F901BC
:1026F00020812064FC0120838BE390E02E85FC0187
:10270000208382E390E022E330E0F90120812F7BF7
:10271000FC01208382E390E022E330E0F901208194
:102720002064FC0120838BE390E02889FC01208356
:1027300082E390E022E330E0F90120812F7BFC016D
:10274000208382E390E022E330E0F90120812064DD
:10275000FC0120838BE390E02E85FC01208382E343
:1027600090E022E330E0F90120812F7BFC012083FF
:1027700082E390E022E330E0F90120812064FC0153
:1027800020838981880F89838A81880F8A838F813A
:102790009885019698878F838F81988588309105D9
:1027A0000CF432CF8D819E8103969E838D838D8123
:1027B0009E818E3491050CF414CF8B819C810196FF
:1027C0009C838B838B819C81833091050CF4EECEAE
:1027D00082E390E022E330E0F90120812062FC01F5
:1027E00020836A960FB6F894DEBF0FBECDBFCF919F
:1027F000DF911F910F910895DF93CF93CDB7DEB78F
:102800006A970FB6F894DEBF0FBECDBF9E8B8D8B3F
:102810006F8B488F3A8F298F888D880F880F8F8311
:102820008F89880F880F88878F81882F90E0805A42
:102830009F4FFC01808189878F818F5F8F838F817C
:10284000882F90E0805A9F4FFC0180818A878F817A
:102850008F5F8F838F81882F90E0805A9F4FFC017C
:1028600080818B878885882F90E0805A9F4FFC015C
:1028700080818C8788858F5F88878885882F90E006
:10288000805A9F4FFC0180818D8788858F5F888764
:102890008885882F90E0805A9F4FFC0180818E8729
:1028A000898D9A8D9C0122953295307F3227207F29
:1028B00032278091F5029091F602820F931F988B38
:1028C0008F878D899E89880F991F880F991F880F80
:1028D000991F9C01220F331F220F331F820F931F5A
:1028E0009A8B898B1A82198215C029813A8189892C
:1028F0009A89820F931F83579F4FFC012081898102
:102900009A818F509F4FFC01208389819A81019683
:102910009A83898389819A818832910534F38F85DE
:102920009889CC01A0E0B0E0BC01CD010E94520822
:102930001C821B8230C18B819C818F509F4FFC0178
:1029400080818B8B8B819C8142968F509F4FFC01A5
:1029500080818C8B1E821D8213C18B8988230CF48D
:10296000AEC08C8988230CF44DC08BE390E0FC0151
:10297000108282E390E022E330E0F90120812F7B96
:10298000FC01208382E390E022E330E0F901208122
:102990002064FC01208382E390E022E330E0F9012F
:1029A00020812F7BFC01208382E390E022E330E052
:1029B000F90120812064FC01208382E390E022E37E
:1029C00030E0F90120812F7BFC01208382E390E03D
:1029D00022E330E0F90120812064FC01208382E3BE
:1029E00090E022E330E0F90120812F7BFC0120837D
:1029F00082E390E022E330E0F90120812064FC01D1
:102A00002083B9C08BE390E02D85FC01208382E315
:102A100090E022E330E0F90120812F7BFC0120834C
:102A200082E390E022E330E0F90120812064FC01A0
:102A300020838BE390E02C85FC01208382E390E0EF
:102A400022E330E0F90120812F7BFC01208382E327
:102A500090E022E330E0F90120812064FC01208332
:102A60008BE390E02E85FC01208382E390E022E35B
:102A700030E0F90120812F7BFC01208382E390E08C
:102A800022E330E0F90120812064FC0120838BE304
:102A900090E02C85FC01208382E390E022E330E08B
:102AA000F90120812F7BFC01208382E390E022E367
:102AB00030E0F90120812064FC0120835CC08BE3BD
:102AC00090E02A85FC01208382E390E022E330E05D
:102AD000F90120812F7BFC01208382E390E022E337
:102AE00030E0F90120812064FC0120838BE390E039
:102AF0002985FC01208382E390E022E330E0F901A4
:102B000020812F7BFC01208382E390E022E330E0F0
:102B1000F90120812064FC0120838BE390E02B8568
:102B2000FC01208382E390E022E330E0F901208180
:102B30002F7BFC01208382E390E022E330E0F90167
:102B400020812064FC0120838BE390E02985FC0137
:102B5000208382E390E022E330E0F90120812F7BA3
:102B6000FC01208382E390E022E330E0F901208140
:102B70002064FC0120838D819E8101969E838D833C
:102B80008D819E81883091050CF4E7CE8B819C81EC
:102B900001969C838B838B819C81823191050CF4FF
:102BA000CACE82E390E022E330E0F9012081206286
:102BB000FC0120836A960FB6F894DEBF0FBECDBF2E
:102BC000CF91DF910895DF93CF93CDB7DEB76A97AA
:102BD0000FB6F894DEBF0FBECDBF9E8B8D8B6F8B73
:102BE000488F3A8F298F888D880F880F8F838F8920
:102BF000880F880F88878F81882F90E0805A9F4F99
:102C0000FC01808189878F818F5F8F838F81882FDF
:102C100090E0805A9F4FFC0180818A878F818F5F6F
:102C20008F838F81882F90E0805A9F4FFC01808195
:102C30008B878885882F90E0805A9F4FFC01808188
:102C40008C8788858F5F88878885882F90E0805A59
:102C50009F4FFC0180818D8788858F5F888788855D
:102C6000882F90E0805A9F4FFC0180818E87898D4C
:102C70009A8D9C0122953295307F3227207F322712
:102C80008091F5029091F602820F931F988B8F87A7
:102C90008D899E89880F991F880F991F880F991F0A
:102CA0009C01220F331F220F331F820F931F9A8B19
:102CB000898B1A82198215C029813A8189899A895A
:102CC000820F931F83579F4FFC01208189819A8136
:102CD0008F509F4FFC01208389819A8101969A83AE
:102CE000898389819A818832910534F38F85988907
:102CF000CC01A0E0B0E0BC01CD010E9452081C82D2
:102D00001B82DFC08B819C818F509F4FFC01808193
:102D10008B8B8B819C8142968F509F4FFC018081D1
:102D20008C8B1E821D82C2C08B8988230CF45DC0EF
:102D30008BE390E02D85FC01208382E390E022E389
:102D400030E0F90120812F7BFC01208382E390E0B9
:102D500022E330E0F90120812064FC0120838BE331
:102D600090E02C85FC01208382E390E022E330E0B8
:102D7000F90120812F7BFC01208382E390E022E394
:102D800030E0F90120812064FC0120838BE390E096
:102D90002E85FC01208382E390E022E330E0F901FC
:102DA00020812F7BFC01208382E390E022E330E04E
:102DB000F90120812064FC0120838BE390E02C85C5
:102DC000FC01208382E390E022E330E0F9012081DE
:102DD0002F7BFC01208382E390E022E330E0F901C5
:102DE00020812064FC0120835CC08BE390E02A8575
:102DF000FC01208382E390E022E330E0F9012081AE
:102E00002F7BFC01208382E390E022E330E0F90194
:102E100020812064FC0120838BE390E02985FC0164
:102E2000208382E390E022E330E0F90120812F7BD0
:102E3000FC01208382E390E022E330E0F90120816D
:102E40002064FC0120838BE390E02B85FC01208330
:102E500082E390E022E330E0F90120812F7BFC0146
:102E6000208382E390E022E330E0F90120812064B6
:102E7000FC0120838BE390E02985FC01208382E321
:102E800090E022E330E0F90120812F7BFC012083D8
:102E900082E390E022E330E0F90120812064FC012C
:102EA00020838D819E8101969E838D838D819E815D
:102EB000883091050CF438CF8B819C8101969C83DE
:102EC0008B838B819C81823191050CF41BCF82E333
:102ED00090E022E330E0F90120812062FC012083B0
:102EE0006A960FB6F894DEBF0FBECDBFCF91DF91CB
:102EF0000895DF93CF93CDB7DEB76C970FB6F894F4
:102F0000DEBF0FBECDBF988F8F8B698F4A8F3C8FEE
:102F10002B8F8A8D880F880F8987898D880F880F5E
:102F20008A878985882F90E0805A9F4FFC01808195
:102F30008B8789858F5F89878985882F90E0805A64
:102F40009F4FFC0180818C8789858F5F8987898568
:102F5000882F90E0805A9F4FFC0180818D878A8561
:102F6000882F90E0805A9F4FFC0180818E878A8550
:102F70008F5F8A878A85882F90E0805A9F4FFC0157
:102F800080818F878A858F5F8A878A85882F90E0E6
:102F9000805A9F4FFC018081888B8B8D9C8D9C017A
:102FA00022953295307F3227207F32278091F5029B
:102FB0009091F602820F931F9A8B898B8F89988D3F
:102FC000880F991F880F991F880F991F9C01220F46
:102FD000331F220F331F820F931F9C8B8B8B1A8200
:102FE000198215C029813A818B899C89820F931F90
:102FF00083579F4FFC01208189819A818F509F4F79
:10300000FC01208389819A8101969A838983898131
:103010009A818832910534F31C821B8256C18B81C0
:103020009C81880F991F82959295907F9827807F29
:1030300098279C0189899A89820F931FCC01A0E06F
:10304000B0E0BC01CD010E9452088B819C819E831F
:103050008D8330C18D819E818F509F4FFC01808177
:103060008D8B8D819E8142968F509F4FFC01808178
:103070008E8B18861F8213C18D8988230CF4AEC0F5
:103080008E8988230CF44DC08BE390E0FC01108204
:1030900082E390E022E330E0F90120812F7BFC0104
:1030A000208382E390E022E330E0F9012081206474
:1030B000FC01208382E390E022E330E0F9012081EB
:1030C0002F7BFC01208382E390E022E330E0F901D2
:1030D00020812064FC01208382E390E022E330E041
:1030E000F90120812F7BFC01208382E390E022E321
:1030F00030E0F90120812064FC01208382E390E02C
:1031000022E330E0F90120812F7BFC01208382E360
:1031100090E022E330E0F90120812064FC0120836B
:10312000B9C08BE390E02F85FC01208382E390E01F
:1031300022E330E0F90120812F7BFC01208382E330
:1031400090E022E330E0F90120812064FC0120833B
:103150008BE390E02E85FC01208382E390E022E364
:1031600030E0F90120812F7BFC01208382E390E095
:1031700022E330E0F90120812064FC0120838BE30D
:1031800090E02889FC01208382E390E022E330E094
:10319000F90120812F7BFC01208382E390E022E370
:1031A00030E0F90120812064FC0120838BE390E072
:1031B0002E85FC01208382E390E022E330E0F901D8
:1031C00020812F7BFC01208382E390E022E330E02A
:1031D000F90120812064FC0120835CC08BE390E036
:1031E0002C85FC01208382E390E022E330E0F901AA
:1031F00020812F7BFC01208382E390E022E330E0FA
:10320000F90120812064FC0120838BE390E02B8571
:10321000FC01208382E390E022E330E0F901208189
:103220002F7BFC01208382E390E022E330E0F90170
:1032300020812064FC0120838BE390E02D85FC013C
:10324000208382E390E022E330E0F90120812F7BAC
:10325000FC01208382E390E022E330E0F901208149
:103260002064FC0120838BE390E02B85FC0120830C
:1032700082E390E022E330E0F90120812F7BFC0122
:10328000208382E390E022E330E0F9012081206492
:10329000FC0120838F819885019698878F838F8189
:1032A0009885883091050CF4E7CE8D819E8101963A
:1032B0009E838D838D819E81823191050CF4CACECF
:1032C0008B819C8101969C838B838B819C81823036
:1032D00091050CF4A4CE82E390E022E330E0F90102
:1032E00020812062FC0120836C960FB6F894DEBF2B
:1032F0000FBECDBFCF91DF910895DF93CF93CDB7B0
:10330000DEB76C970FB6F894DEBF0FBECDBF988FB7
:103310008F8B698F4A8F3C8F2B8F8A8D880F880FF8
:103320008987898D880F880F8A878985882F90E003
:10333000805A9F4FFC0180818B8789858F5F8987A9
:103340008985882F90E0805A9F4FFC0180818C876F
:1033500089858F5F89878985882F90E0805A9F4F64
:10336000FC0180818D878A85882F90E0805A9F4F4D
:10337000FC0180818E878A858F5F8A878A85882F66
:1033800090E0805A9F4FFC0180818F878A858F5FF4
:103390008A878A85882F90E0805A9F4FFC01808120
:1033A000888B8B8D9C8D9C0122953295307F3227A6
:1033B000207F32278091F5029091F602820F931FB1
:1033C0009A8B898B8F89988D880F991F880F991FE9
:1033D000880F991F9C01220F331F220F331F820F6A
:1033E000931F9C8B8B8B1A82198215C029813A817D
:1033F0008B899C89820F931F83579F4FFC012081EB
:1034000089819A818F509F4FFC01208389819A8105
:1034100001969A83898389819A818832910534F350
:103420001C821B8205C18B819C81880F991F82950C
:103430009295907F9827807F98279C0189899A8907
:10344000820F931FCC01A0E0B0E0BC01CD010E942F
:1034500052088B819C819E838D83DFC08D819E81EC
:103460008F509F4FFC0180818D8B8D819E81429674
:103470008F509F4FFC0180818E8B18861F82C2C0A7
:103480008D8988230CF45DC08BE390E02F85FC01CF
:10349000208382E390E022E330E0F90120812F7B5A
:1034A000FC01208382E390E022E330E0F9012081F7
:1034B0002064FC0120838BE390E02E85FC012083B7
:1034C00082E390E022E330E0F90120812F7BFC01D0
:1034D000208382E390E022E330E0F9012081206440
:1034E000FC0120838BE390E02889FC01208382E3A8
:1034F00090E022E330E0F90120812F7BFC01208362
:1035000082E390E022E330E0F90120812064FC01B5
:1035100020838BE390E02E85FC01208382E390E002
:1035200022E330E0F90120812F7BFC01208382E33C
:1035300090E022E330E0F90120812064FC01208347
:103540005CC08BE390E02C85FC01208382E390E05B
:1035500022E330E0F90120812F7BFC01208382E30C
:1035600090E022E330E0F90120812064FC01208317
:103570008BE390E02B85FC01208382E390E022E343
:1035800030E0F90120812F7BFC01208382E390E071
:1035900022E330E0F90120812064FC0120838BE3E9
:1035A00090E02D85FC01208382E390E022E330E06F
:1035B000F90120812F7BFC01208382E390E022E34C
:1035C00030E0F90120812064FC0120838BE390E04E
:1035D0002B85FC01208382E390E022E330E0F901B7
:1035E00020812F7BFC01208382E390E022E330E006
:1035F000F90120812064FC0120838F819885019648
:1036000098878F838F819885883091050CF438CF07
:103610008D819E8101969E838D838D819E818231D5
:1036200091050CF41BCF8B819C8101969C838B832D
:103630008B819C81823091050CF4F5CE82E390E081
:1036400022E330E0F90120812062FC0120836C96A6
:103650000FB6F894DEBF0FBECDBFCF91DF910895B6
:10366000DF93CF93CDB7DEB728970FB6F894DEBFC0
:103670000FBECDBF98878F838F8198859C0122953F
:103680003295307F3227207F32278091F50290914A
:10369000F602820F931F9E838D838D819E81CC01C4
:1036A000A0E0B0E0BC01CD010E9452088AE390E0A6
:1036B0002FEFFC0120838BE390E0FC0110821A8243
:1036C00019825BC01C821B824DC082E390E022E322
:1036D00030E0F90120812F7BFC01208382E390E020
:1036E00022E330E0F90120812064FC01208382E3A1
:1036F00090E022E330E0F90120812F7BFC01208360
:1037000082E390E022E330E0F90120812064FC01B3
:10371000208382E390E022E330E0F90120812F7BD7
:10372000FC01208382E390E022E330E0F901208174
:103730002064FC01208382E390E022E330E0F90181
:1037400020812F7BFC01208382E390E022E330E0A4
:10375000F90120812064FC0120838B819C810196EA
:103760009C838B838B819C81883091050CF4ADCF39
:1037700089819A8101969A83898389819A8182318C
:1037800091050CF49FCF82E390E022E330E0F90151
:1037900020812062FC01208328960FB6F894DEBFBA
:1037A0000FBECDBFCF91DF910895DF93CF93CDB7FB
:1037B000DEB728970FB6F894DEBF0FBECDBF98874F
:1037C0008F838F8198859C0122953295307F322797
:1037D000207F32278091F5029091F602820F931F8D
:1037E0009E838D838D819E81CC01A0E0B0E0BC01E1
:1037F000CD010E9452088AE390E02FEFFC01208364
:103800008BE390E0FC0110821A8219825BC01C825B
:103810001B824DC082E390E022E330E0F901208179
:103820002F7BFC01208382E390E022E330E0F9016A
:1038300020812064FC01208382E390E022E330E0D9
:10384000F90120812F7BFC01208382E390E022E3B9
:1038500030E0F90120812064FC01208382E390E0C4
:1038600022E330E0F90120812F7BFC01208382E3F9
:1038700090E022E330E0F90120812064FC01208304
:1038800082E390E022E330E0F90120812F7BFC010C
:10389000208382E390E022E330E0F901208120647C
:1038A000FC0120838B819C8101969C838B838B817F
:1038B0009C81883091050CF4ADCF89819A81019665
:1038C0009A83898389819A818A3191050CF49FCFEB
:1038D0008BE390E02BE330E0F90120812062FC01D2
:1038E000208328960FB6F894DEBF0FBECDBFCF91D0
:1038F000DF910895DF93CF93CDB7DEB72D970FB645
:10390000F894DEBF0FBECDBF8B877D876C878B851C
:10391000880F880F8D838D81882F90E0805A9F4F6C
:10392000FC0180818E838D818F5F8D838D81882FB7
:1039300090E0805A9F4FFC0180818F838D818F5F43
:103940008D838D81882F90E0805A9F4FFC0180816C
:1039500088878C859D859C0122953295307F322702
:10396000207F32278091F5029091F602820F931FFB
:103970009A87898789859A85CC01A0E0B0E0BC014F
:10398000CD010E9452081A8219826FC01C821B82CC
:1039900061C08BE390E02F81FC01208382E390E003
:1039A00022E330E0F90120812F7BFC01208382E3B8
:1039B00090E022E330E0F90120812064FC012083C3
:1039C0008BE390E02E81FC01208382E390E022E3F0
:1039D00030E0F90120812F7BFC01208382E390E01D
:1039E00022E330E0F90120812064FC0120838BE395
:1039F00090E02885FC01208382E390E022E330E020
:103A0000F90120812F7BFC01208382E390E022E3F7
:103A100030E0F90120812064FC0120838BE390E0F9
:103A20002E81FC01208382E390E022E330E0F90163
:103A300020812F7BFC01208382E390E022E330E0B1
:103A4000F90120812064FC0120838B819C810196F7
:103A50009C838B838B819C81883091050CF499CF5A
:103A600089819A8101969A83898389819A81823199
:103A700091050CF48BCF8BE390E02BE330E0F90160
:103A800020812062FC0120832D960FB6F894DEBFC2
:103A90000FBECDBFCF91DF910895DF93CF93CDB708
:103AA000DEB72D970FB6F894DEBF0FBECDBF8B8764
:103AB0007D876C878B85880F880F8D838D81882FFC
:103AC00090E0805A9F4FFC0180818E838D818F5FB3
:103AD0008D838D81882F90E0805A9F4FFC018081DB
:103AE0008F838D818F5F8D838D81882F90E0805AA9
:103AF0009F4FFC01808188878C859D859C01229544
:103B00003295307F3227207F32278091F5029091C5
:103B1000F602820F931F9A87898789859A85CC013F
:103B2000A0E0B0E0BC01CD010E9452081A821982C7
:103B30006FC01C821B8261C08BE390E02F81FC016F
:103B4000208382E390E022E330E0F90120812F7BA3
:103B5000FC01208382E390E022E330E0F901208140
:103B60002064FC0120838BE390E02E81FC01208304
:103B700082E390E022E330E0F90120812F7BFC0119
:103B8000208382E390E022E330E0F9012081206489
:103B9000FC0120838BE390E02885FC01208382E3F5
:103BA00090E022E330E0F90120812F7BFC012083AB
:103BB00082E390E022E330E0F90120812064FC01FF
:103BC00020838BE390E02E81FC01208382E390E050
:103BD00022E330E0F90120812F7BFC01208382E386
:103BE00090E022E330E0F90120812064FC01208391
:103BF0008B819C8101969C838B838B819C818830F7
:103C000091050CF499CF89819A8101969A838983D1
:103C100089819A818A3191050CF48BCF8BE390E0F6
:103C20002BE330E0F90120812062FC0120832D96F6
:103C30000FB6F894DEBF0FBECDBFCF91DF910895D0
:103C4000DF93CF930F92CDB7DEB7898380E490E006
:103C5000FC01108289E290E02981FC0120838AE244
:103C600090E028E1FC01208380E490E02EE8FC0154
:103C700020830F90CF91DF910895DF93CF930F9220
:103C8000CDB7DEB7898300008BE290E0FC01808134
:103C9000882F90E0807290700097B1F38CE290E0F2
:103CA0002981FC0120830F90CF91DF910895DF934C
:103CB000CF93CDB7DEB700008BE290E0FC018081AE
:103CC0008823D4F78CE290E0FC018081CF91DF91D2
:103CD0000895DF93CF9300D00F92CDB7DEB79B83CB
:103CE0008A8303C089810E943D1E8A819B81FC01D9
:103CF0008081898321E08981882309F420E08A81F9
:103D00009B8101969B838A83222361F700008BE2CB
:103D100090E0FC018081882F90E080729070009785
:103D2000B1F30F900F900F90CF91DF910895DF9333
:103D3000CF9300D000D00F92CDB7DEB79C838B839A
:103D40006D83198281E09D81992309F080E09D8136
:103D500091509D838823D9F40E94571E8A838A81BB
:103D60008D30B1F08A818A3099F089818F5F8983A3
:103D70008B819C812A81FC0120838B819C8101960F
:103D80009C838B838B819C81FC011082DBCF0000A4
:103D900089810F900F900F900F900F90CF91DF912E
:063DA0000895F894FFCF26
:103DA600EB808000D21092006ACADE00515AF00001
:103DB60079F06E009F4BC500AAA61000913622002E
:0C3DC60029F06E00306D68001080800055
:00000001FF
