:100000000C942A000C9447000C94F2010C94C50344
:100010000C9447000C9447000C9447000C94470044
:100020000C9447000C9447000C9447000C94470034
:100030000C9447000C9447000C9447000C94470024
:100040000C9447000C9447000C9447000C94470014
:100050000C94470011241FBECFE5D8E0DEBFCDBF12
:1000600012E0A0E6B0E0ECE8FCE202C005900D92E0
:10007000A039B107D9F717E0A0E9B2E001C01D929D
:10008000A83AB107E1F70E9406040C9444160C94B8
:1000900000008BB78F778BBF8BB780688BBF88E0F2
:1000A00085BF08958BB78F778BBF0895EF92FF922E
:1000B0000F931F93CF93DF9380E49EE7A5E0B0E01A
:1000C0008093A4079093A507A093A607B093A707D2
:1000D00080919702813009F0B9C0C0E0D0E088C0BB
:1000E0008E01000F111F020F131FC80101978735E2
:1000F000910548F0FE01E352FF4F8081813A08F4F8
:1001000076C0219674C080919802813041F5FE013D
:10011000E352FF4F8081982F91529E3548F490E032
:1001200060919A0240919B0298010E94C41217C0EC
:10013000813A90F07E010894E11CF11CF701E35232
:10014000FF4F6081613A40F040919A0220919B02FA
:100150000E941010E70103C0C8010E94041580919D
:100160009802823009F043C0FE01E352FF4F8081C4
:10017000982F91529E3588F49E01220F331F409193
:10018000A1025091A202240F351F90E060919A02C3
:1001900040919B020E945B132AC0813AD8F07E01F5
:1001A0000894E11CF11CF701E352FF4F6081613AB2
:1001B00088F08E01000F111F2091A1023091A20240
:1001C000020F131F40919A0220919B020E94781106
:1001D000E7010DC0BE01660F771F8091A1029091CB
:1001E000A202680F791F80919A020E9462152196DF
:1001F0008091990290E02091A1023091A202C8174B
:10020000D9070CF46DCF880F991F820F931F893582
:1002100091050CF0E0C020919802213011F40E9469
:10022000041580919802823009F0D5C0609199023E
:1002300070E0660F771F8091A1029091A202680F73
:10024000791F80919A020E946215C5C0823009F020
:10025000C2C0C0E0D0E090C08E01000F111F0C0F93
:100260001D1F020F131FC80101978735910548F024
:10027000FE01E352FF4F8081813A08F47CC0219651
:100280007AC080919802813041F5FE01E352FF4F20
:100290008081982F91529E3548F490E060919A02A7
:1002A00040919B0298010E94C41217C0813A90F0BD
:1002B0007E010894E11CF11CF701E352FF4F6081BD
:1002C000613A40F040919A0220919B020E94C11035
:1002D000E70103C0C8010E94331580919802823063
:1002E00009F049C0FE01E352FF4F8081982F9152DF
:1002F0009E3598F49E01220F331F2C0F3D1F409115
:10030000A1025091A202240F351F90E060919A0241
:1003100040919B020E945B132EC0813AE8F07E015F
:100320000894E11CF11CF701E352FF4F6081613A30
:1003300098F08E01000F111F0C0F1D1F2091A102BC
:100340003091A202020F131F40919A0220919B024A
:100350000E941C12E7010FC0BE01660F771F6C0FD1
:100360007D1F8091A1029091A202680F791F809158
:100370009A020E94AD1521964091990250E0209179
:10038000A1023091A202C417D5070CF465CFCA01AF
:10039000880F991F840F951F820F931F8935910530
:1003A000D4F420919802213011F40E9433158091E9
:1003B0009802823081F46091990283E0689FB001D5
:1003C00011248091A1029091A202680F791F80915F
:1003D0009A020E94AD15DF91CF911F910F91FF906E
:1003E000EF9008951F920F920FB60F9211242F9342
:1003F0003F934F935F936F937F938F939F93AF93AD
:10040000BF93EF93FF93F89480919602813089F522
:100410008091A3078F5F8093A307803150F11092E2
:10042000A3078091A1029091A20201979093A2024A
:100430008093A10220919702213031F420919902FA
:1004400030E0220F331F08C0223089F43091990226
:1004500023E0329F90011124280F391F1216130632
:1004600034F088E590E09093A2028093A1020E946C
:1004700056007894FF91EF91BF91AF919F918F912A
:100480007F916F915F914F913F912F910F900FBE90
:100490000F901F901895CF92DF92EF92FF920F93DB
:1004A0001F93CF93DF937B01BC0180E090E020EAB3
:1004B00035E040E050E00E9425166093A407709359
:1004C000A5078093A6079093A70780919702813094
:1004D00009F0A2C0E70100E010E096C08091980208
:1004E000813009F044C0F801E352FF4F8081982F1A
:1004F00091529E3548F490E060919A0240919B029F
:100500009E010E94C41219C0813AA0F0780108949B
:10051000E11CF11CF701E352FF4F6081613A50F09A
:1005200040919A0220919B028E010E941010249605
:10053000870104C0CE010E9404152296C235D10560
:10054000B0F08091A4079091A507A091A607B09163
:10055000A707805C9A49AF4FBF4F8093A407909341
:10056000A507A093A607B093A707C4E0D0E08091A9
:100570009802823009F046C0F801E352FF4F8081B3
:10058000982F91529E3548F490E060919A024091E4
:100590009B029E010E945B131BC0813AA0F0780170
:1005A0000894E11CF11CF701E352FF4F6081613AAE
:1005B00050F040919A0220919B028E010E94781186
:1005C0002496870106C080919A02BE010E9462159E
:1005D0002296C235D105B0F08091A4079091A5076D
:1005E000A091A607B091A707805C9A49AF4FBF4F73
:1005F0008093A4079093A507A093A607B093A7079D
:10060000C4E0D0E00F5F1F4F8091990290E008177F
:1006100019070CF463CFB0C0823009F0ADC0E70118
:1006200000E010E0A2C080919802813009F04AC039
:10063000F801E352FF4F8081982F91529E3578F454
:100640009801220F331F200F311F2E0D3F1D90E008
:1006500060919A0240919B020E94C4121AC0813A92
:10066000A0F068010894C11CD11CF601E352FF4FB1
:100670006081613A50F040919A0220919B028E0174
:100680000E94C1102696860104C0CE010E94331537
:100690002396C435D105B0F08091A4079091A507A9
:1006A000A091A607B091A707805C9D46AF4FBF4FB2
:1006B0008093A4079093A507A093A607B093A707DC
:1006C000C4E0D0E080919802823009F04CC0F8017B
:1006D000E352FF4F8081982F91529E3578F4980114
:1006E000220F331F200F311F2E0D3F1D90E0609110
:1006F0009A0240919B020E945B131CC0813AA0F0B9
:1007000068010894C11CD11CF601E352FF4F6081BF
:10071000613A50F040919A0220919B028E010E9412
:100720001C122696860106C080919A02BE010E9484
:10073000AD152396C435D105B0F08091A4079091F2
:10074000A507A091A607B091A707805C9D46AF4F73
:10075000BF4F8093A4079093A507A093A607B093DB
:10076000A707C4E0D0E00F5F1F4F8091990290E08F
:10077000081719070CF457CFDF91CF911F910F91F4
:10078000FF90EF90DF90CF9008951F920F920FB6D9
:100790000F9211242F933F934F935F936F937F9307
:1007A0008F939F93AF93BF93EF93FF93F8940E941F
:1007B0002A0680919E028823B9F0809196028230A9
:1007C00069F40E944B0F60919D0280919C0290E021
:1007D00070E00E944B020E94520004C00E944B0F26
:1007E0000E94490010929E027894FF91EF91BF9170
:1007F000AF919F918F917F916F915F914F913F91B9
:100800002F910F900FBE0F901F901895A89581B54E
:10081000886181BD11BC0E94F81580E690E00E94BD
:100820000B161DBC1CBC8BE197EB9BBD8ABD1FBC8E
:100830008DE08EBD08B604FEFDCF88B7806188BF0D
:1008400080E790E00E940B160E94930B0E94C30C5D
:100850008CE790E00E940B168BB78F7D8BBF8BB718
:1008600080628BBF84B78F7B84BF89E890E00E9451
:100870000B160E94DB060E947A0A0E94DE0983E9B9
:1008800090E00E940B160E944B0F0E9470040E9481
:10089000A70485E090E09093A2028093A1021092B9
:1008A000A30785E1809399028AE080939A0282E00F
:1008B00080939B02E6E9F2E081E0809396028183D7
:1008C00082838BE990E06AE070E00E944B028EE93F
:1008D00090E00E940B1678948D9A959AA895FECF79
:1008E0008FE784BB83E885BB000008950895959A3F
:1008F000AB98AD98AE9AAC9AAA989FEF9ABB8BBB77
:10090000AA9AAC980895959AAD98AE9AAC98AB9A7D
:10091000AA989FEF9ABB8BBBAA9AAB980895959A19
:10092000AE9AAC98AD98AB98AA989FEF9ABB8BBB48
:10093000AA9A0895959A9F9BFECFAC98AD98AA9AD3
:10094000AB98AE9800001ABA89B3AE9A08958FEFAB
:100950000E947704089580E70E9477040E949A0419
:10096000AD9A08950F931F9380E90E94770480E069
:100970000E9483040E949A04082F0E949A04182F50
:100980000E949A040E949A04AD9A0C3E19F481E0E8
:10099000163709F080E01F910F910895CF92DF92F2
:1009A000FF920F931F93DF93CF9300D00F92CDB799
:1009B000DEB7182F042FF22E80E05B8369837A83E1
:1009C0000E94770480E00E9483046981862F0E9440
:1009D00083047A81872F0E948304812F81700E9473
:1009E00083045B819F9BFECF402F6A0105C00E945C
:1009F0009A04F60181936F018C2D801B8F15B8F33B
:100A0000AD9A0F900F900F90CF91DF911F910F91A2
:100A1000FF90DF90CF900895CF92DF92EF92FF92F8
:100A20000F931F93DF93CF9300D000D0CDB7DEB7E5
:100A3000082FE22E80E84B835C8369837A830E94CF
:100A4000770480E00E9483046981862F0E948304DA
:100A50007A81872F0E948304802F81700E948304F3
:100A60004B815C81042F152FCC24DD24FF2408C08A
:100A7000F80181918F010E948F040894C11CD11C40
:100A8000CE14DF04A8F380E10E9477049F9BFECF81
:100A90000E94AB0491E080FD90E0892F0F900F90B1
:100AA0000F900F90CF91DF911F910F91FF90EF90DA
:100AB000DF90CF900895EF92FF920F931F937C01E8
:100AC00085E0EE0CFF1C8A95E1F780E60E94770432
:100AD0008E2D0E9483048F2D0E94830480E00E944B
:100AE000830480ED0E94770400009F9BFECF0E944C
:100AF000AB0491E080FD90E0892F1F910F91FF9052
:100B0000EF900895CF93DF93C0E0D0E0CE010E9434
:100B10005B05882339F0219688E0C030D807B1F70B
:100B200081E001C080E0DF91CF910895FC01633046
:100B3000710518F18081873481F481818534E9F46D
:100B400082818435D1F48381803299F484818F321B
:100B500081F48581803269F40EC0803571F4818121
:100B60008F3459F48281833541F48381843529F4AB
:100B700006C082E0089581E0089580E0089583E052
:100B80000895FC019B0180818B3509F061C0818152
:100B9000803531F5948180E0638170E0682B792B9A
:100BA000882777FD8095982F4281423049F0443064
:100BB00061F0413071F460537F4D8F4F9F4F09C0FA
:100BC0006052784B8F4F9F4F04C0605F784D8F4FBE
:100BD0009F4FAF014B5F5F4F26500E940C0538C0FE
:100BE0008434B1F58281882311F081E001C082E074
:100BF000809396028381882311F082E001C081E016
:100C0000809397028481882311F082E001C081E003
:100C100080939802858180939B02868180939A02BB
:100C2000878180939C02808580939D023996ADEDEB
:100C3000B0E0C9018D529F4F02C041914D93A8175A
:100C4000B907D9F72A502093990281E080939E0238
:100C500081E00895CF93DF93A2C083EA92E00E94DF
:100C60009407882329F083EA92E00E94B00797C096
:100C700083EA92E00E946A08882349F183EA92E0BD
:100C80000E94790823EC8B3C9207C1F483EA92E03E
:100C90000E948D08EC0183EA92E00E940308BC01E7
:100CA0006C517040CE010E94C105882339F082E06A
:100CB00090E063EA72E04DE151E006C085E090E02B
:100CC00063EA72E040E251E00E94920868C083EA61
:100CD00092E00E94CD08882379F083EA92E00E9496
:100CE000FB088035910509F05AC083EA92E062E181
:100CF00048E150E021E051C083EA92E00E94ED0813
:100D00008823C1F183EA92E00E94FB0880359105B7
:100D100009F045C083EA92E00E940B09EC0183EAE6
:100D200092E00E940308BC0168527040CE010E940C
:100D30009605813019F0823091F50EC083EA92E079
:100D400066E271E04AEF50E00E94170983EA92E000
:100D500068E14EE051E020C083EA92E060E272E098
:100D60004CE950E00E94170983EA92E068E140EB09
:100D700050E012C083EA92E00E94DD08882379F0F7
:100D800083EA92E00E94FB088035910541F483EAF2
:100D900092E061E144E150E020E00E94260980E019
:100DA00094E063EA72E00E945C0D009709F055CF71
:100DB000DF91CF91089584B38C7F84BBA89A88E497
:100DC00080B911B808951F93CF93DF93182F85E250
:100DD00092E00E940B16133041F1143028F41130C8
:100DE00051F0123079F51EC0153029F1153000F19F
:100DF000163041F523C08FE292E00E940B16C0E04E
:100E0000D0E081B190E00C2E02C0959587950A94B0
:100E1000E2F78170805D0E9400162196C830D105EE
:100E200081F710C08BE392E00BC089E492E008C028
:100E30008AE592E005C08AE692E002C08EE792E081
:100E40000E940B16DF91CF911F91089584E286BF17
:100E500086B7806886BF06B607FEFDCF81B1887F62
:100E6000883039F081B1887F803119F081E00E94AB
:100E7000E306089584EA86BF06B607FEFDCF81B17A
:100E8000887F803119F082E00E94E306089583B9DB
:100E900094E896BF06B607FEFDCF80FD08C081B17D
:100EA000887F883159F083E00E94E306089581B17C
:100EB000887F803419F084E00E94E306089583B9A6
:100EC00084E886BF06B607FEFDCF81B1887F8832F1
:100ED00019F085E00E94E306089584E986BF08952D
:100EE00084EC86BF06B607FEFDCF81B1887F8035D2
:100EF00019F086E00E94E30683B10895FC01DC014D
:100F000080E016969C9116979D938F5F8630C9F767
:100F1000168284E0878383EA80878BE5818780EE71
:100F200082878BE383870895FC01348520E08585E3
:100F300090E0822B932B28E08630920769F486A1FB
:100F40008C3A51F487A1803139F480A58F3031F487
:100F500081E091A5913019F080E0089580E0089536
:100F6000CF93DF93EC011E8681E08F8788E0888B2A
:100F7000198A86E08A8B84E08B8B1C8A82E08D8BB9
:100F8000FE01769680E0919191878F5F8A30D9F744
:100F90001E8A84E08F8B83EA888F8BE5898F80EEB1
:100FA0008A8F8BE38B8F8CEA8C8F80E18D8F8FE023
:100FB0008E8F81E08F8FCE010E947E078AE290E0C3
:100FC000BE0140E00E94080EDF91CF910895FC0120
:100FD000858590E0348520E0822B932B28E08030BB
:100FE000920769F4868D8C3A51F4878D803139F4FB
:100FF00080A18F3031F481E091A1913019F080E02F
:10100000089580E00895CF93DF93EC010E94E707F5
:10101000882339F0988980E0298930E0282B392B02
:1010200002C020E030E0C901DF91CF9108950F9315
:101030001F93DF93CF9300D00F92CDB7DEB78C0113
:1010400085E4FB0186871786C8014496908B802F24
:101050008C5E818B8091910290919202928B838B16
:101060000196909392028093910280E4848B158A7A
:10107000868B478B828D868F838D878F848D80A30F
:10108000858D81A38CEA828F80E1838F8FE0848FAE
:1010900081E0858F108E118ECB014B8369837A831B
:1010A0000E947E074B8169817A81463021F4C80114
:1010B000829643E005C0413129F4C801829647E099
:1010C0000E94080E0F900F900F90CF91DF911F910B
:1010D0000F910895CF93DF93EC010E94E7078823D7
:1010E00021F081E09F89913109F080E0DF91CF917B
:1010F0000895CF93DF93EC010E946A08882339F0AA
:101100009CA180E02DA130E0282B392B02C020E0EB
:1011100030E0C901DF91CF9108959C01265D3F4FDA
:10112000C9010895CF93DF939C01FB0174A160E096
:1011300085A190E0862B972B62A164A363A165A390
:1011400092A383A3C901089696A3622F685F67A341
:1011500010A611A6EA01DF019A9640E050E004C013
:1011600069916D934F5F5F4F42175307C8F3BF01FB
:1011700041E10E941708DF91CF910895CF93DF934B
:10118000EC010E94E707882321F081E09F899630D7
:1011900009F080E0DF91CF910895CF93DF93EC01C8
:1011A0000E94BE08882329F09FA591FF02C081E01C
:1011B00094FD80E0DF91CF910895CF93DF93EC0110
:1011C0000E94BE08882329F09FA5917181E091318A
:1011D00009F080E0DF91CF910895CF93DF93EC0188
:1011E0000E94BE08882319F09FA581E093FF80E04C
:1011F000DF91CF910895CF93DF93EC010E94BE0859
:10120000882319F02DA130E002C020E030E0C901B0
:10121000DF91CF910895FC0126A5269526952451AE
:1012200030E02A5C3F4F280F391FC9010895262F4F
:10123000372FF901DC01D69680E090E003C02191C0
:101240002D93019684179507D0F30895CF92DF92DE
:10125000EF92FF920F931F93CF93DF93FC01362FF2
:101260006A01E2A0F3A084A182A385A183A3E4A2E2
:10127000F5A2C0918E02D0918F0256A140E087A1C5
:1012800090E0842B952BAA2797FDA095BA2FDC011F
:101290009927882770A560E041A550E0462B572B81
:1012A000662757FD6095762F842B952BA62BB72BA1
:1012B0000196A11DB11DBE016F5F7F4F70938F021C
:1012C00060938E0247A544FF09C042A546A343A5EB
:1012D00047A344A540A745A541A70BC01E2D00E08C
:1012E0004F2D50E0402B512B56A347A37E01F0A673
:1012F000C1A785A794A7A3A7B2A7222359F080E688
:1013000086A782E086AB84E087AB85E080AF84EB84
:1013100081AF02C080E586A737A714AA12AA13AA34
:10132000C601BF0146E00E941708DF91CF911F91CF
:101330000F91FF90EF90DF90CF900895DF93CF93C0
:1013400000D00F92CDB7DEB74B836A8389830E94AA
:10135000260789810E9447076A81862F0E945F07BE
:101360004B81842F0E945F070E946D070F900F90A2
:101370000F90CF91DF9108951F93DF93CF930F923A
:10138000CDB7DEB7182F69830E942607812F8E7F85
:101390000E9447076981862F0E945F070E943A07D3
:1013A000812F0E9447070E94700789830E946D0762
:1013B00089810F90CF91DF911F910895CF93DF9393
:1013C0008AE461E048E00E949E098AE462E041EC20
:1013D0000E949E098AE463E043E20E949E098AE437
:1013E00064E040E00E949E098AE465E040E00E94DB
:1013F0009E098AE466E04BEE0E949E098AE467E05B
:1014000040EE0E949E098AE468E048E80E949E0936
:101410008AE469E041E00E949E098AE46AE040E8CB
:101420000E949E098AE46BE047E40E949E098AE4D8
:101430006CE040E40E949E098AE46DE040E00E9476
:101440009E098AE46EE041E00E949E098AE46FE012
:101450004AE20E949E098AE460E140E00E949E09FF
:101460008AE461E14CE00E949E098AE462E14EE771
:101470000E949E098AE463E141E00E949E098AE499
:1014800065E140E00E949E098AE466E140E00E9436
:101490009E098AE467E140E00E949E098AE460E4D4
:1014A00042E00E949E09C1E4D0E08AE46C2F4FEF35
:1014B0000E949E092196C835D105B9F78AE468E5EE
:1014C00040E00E949E098AE469E544E50E949E0985
:1014D0008AE46AE547E00E949E098AE46BE543E8F6
:1014E0000E949E098AE46EE540E00E949E09DF9119
:1014F000CF9108950F931F93DF93CF9300D00F9256
:10150000CDB7DEB788E866E240E00E949E0989E830
:1015100066E20E94BC09982F92959F70905D998316
:101520008F70805D8A831B828E010F5F1F4FC80101
:101530000E940B1688E867E240E00E949E0988E856
:1015400068E241EA0E949E0988E869E24DE10E9452
:101550009E0988E86AE240E80E949E0988E86BE2FA
:1015600040E80E949E0988E86CE240E80E949E09DB
:1015700088E86DE240E80E949E0988E86EE240E05B
:101580000E949E0988E86AE343E10E949E0989E877
:101590006AE30E94BC09982F92959F70905D998391
:1015A0008F70805D8A831B82C8010E940B1688E8B9
:1015B0006AE540E00E949E0988E86BE54DE70E94DD
:1015C0009E0988E86CE54FEA0E949E0988E86DE56F
:1015D0004AE60E949E0988E86EE545E70E949E095A
:1015E00088E86FE545E30E949E0988E861E646E2E7
:1015F0000E949E0988E862E64FEA0E949E0988E8F8
:1016000063E64BEC0E949E0988E864E64AE80E9483
:101610009E0988E865E649E00E949E0988E866E63A
:101620004AE20E949E0988E867E640E80E949E0917
:1016300088E868E640E80E949E0988E869E640E894
:101640000E949E0988E86AE640E80E949E0988E8B0
:101650006BE640E20E949E0988E86CE645E00E9445
:101660009E0988E86DE640E20E949E0988E86EE6E1
:1016700040E20E949E0988E86FE644E10E949E09CC
:1016800088E860E740E80E949E0988E861E748EE44
:101690000E949E0988E862E740E10E949E0988E86E
:1016A00063E742E40E949E0988E864E743E00E9401
:1016B0009E0988E865E743E00E949E0988E866E79E
:1016C00045E00E949E0988E867E746E10E949E097E
:1016D00088E868E744E00E949E0988E869E746E1F7
:1016E0000E949E0988E86AE748E10E949E0988E80E
:1016F0006BE748E30E949E0988E86CE740E40E949B
:101700009E0988E86EE740E00E949E0988E86FE73E
:1017100040E00E949E090F900F900F90CF91DF91B3
:101720001F910F91089581E58DB987B3806B87BBB9
:101730000895C4980895C49A08958F9A979A089521
:101740008F9A979808958FB9779BFECF8FB10895A0
:101750001F93DF93CF930F92CDB7DEB7162F8983F8
:101760000E94990B912F9F718981892B0E94A30B55
:101770008FEF0E94A30B17FF03C08FEF0E94A30BF4
:1017800089830E949B0B89810F90CF91DF911F91DC
:1017900008951F93DF93CF9300D0CDB7DEB7182FF6
:1017A0004A8369830E94990B6981862F8F71812BEF
:1017B0000E94A30B4A81842F0E94A30B0E949B0BC3
:1017C0000F900F90CF91DF911F910895CF92DF92EC
:1017D000EF92FF920F931F93CF93DF936C018B01D6
:1017E0000E94990B8AE30E94A30B7801E60107C0CF
:1017F00021978FEF0E94A30BF70181937F01209720
:10180000B9F70C0D1D1DF80110820E949B0BDF9192
:10181000CF911F910F91FF90EF90DF90CF9008959F
:101820000F931F93CF93DF93EC018B010E94990BD1
:101830008AE704C02197F80181918F010E94A30BD0
:101840002097C1F70E949B0BDF91CF911F910F91C1
:1018500008951F93CF93DF93182FC82FD0E0C07641
:10186000D0702091950230E0C217D30791F080EA42
:101870006FE143E00E94C90BAE0185E055954795A5
:101880008A95E1F780E86FE10E94C90B107610930A
:101890009502DF91CF911F9108950E94990B8FEFD0
:1018A0000E94A30B0E949B0B0895DF93CF930F928E
:1018B000CDB7DEB7682F69830E94290C80E069816B
:1018C0000E94A80B0F90CF91DF9108951F93DF9393
:1018D000CF930F92CDB7DEB7182F69830E94290CE2
:1018E00080E4612F49810E94C90B0F90CF91DF9155
:1018F0001F910895EF92FF92CF93DF93682F84EDAD
:101900000E94660C80E862ED41E00E94C90B8AEEFD
:101910000E94550C80FDFBCF80EA62ED41E00E9401
:10192000C90B88ED0E94550CC82FD0E089ED0E94AC
:10193000550C382F20E0C22BD32BCE01DF91CF9155
:10194000FF90EF9008951F93DF93CF930F92CDB741
:10195000DEB7982F162F84ED692F79830E94660CCD
:1019600086ED612F0E94660C87ED7981672F0E94BA
:10197000660C8AEE0E94550C80FDFBCF0F90CF9134
:10198000DF911F9108950E949D0B0E944D0C1092B3
:1019900094021092930288E060E00E94660C89E055
:1019A00060E00E94660C8AE06FEF0E94660C8BE09C
:1019B00069E10E94660C8CE060E00E94660C8DE09C
:1019C00060E00E94660C84E060E00E94660C85E0A6
:1019D0006AE10E94660C86E06FEF0E94660C87E069
:1019E0006FE10E94660C88E361EA0E94660C88E25F
:1019F0006FE30E94660C89E260E30E94660C80E35C
:101A000069EF0E94660C81E367EF0E94660C80EC30
:101A10006DE00E94660C80EA61EC40E80E94C90B10
:101A200082EC63E30E94660C8AEC6EEE0E94660C08
:101A30008BEC65E00E94660C84EC65E10E94660C0C
:101A400086EC62E10E94660C87EC6CE00E94660CFA
:101A500081EE6BE30E94660C80EE60EE0E94660CE5
:101A600083EE6BE50E94660C82EE63EA0E94660CD0
:101A700085EE64E00E94660C84EE60E00E94660CD5
:101A800080E060E071E00E94A30C80E160E071E022
:101A90000E94A30C8FE10E94290C80E86BE140ECCE
:101AA0000E94C90B80E86FE144E10E94C90B0895D0
:101AB00082E70E94550C0895AF92BF92CF92DF92B9
:101AC000EF92FF920F931F93DF93CF93CDB7DEB7C3
:101AD00027970FB6F894DEBF0FBECDBF6C015B0138
:101AE00089E30E94550C8823D1F160919302009103
:101AF000940280E00E94660C81E0602F0E94660CD8
:101B000086E090E0BE016F5F7F4F0E94E60B9A81F6
:101B100080E0E980FF24E82AF92AF0929402E0921A
:101B200093020B8110E09C8180E0082B192B04505C
:101B30001040C016D10608F48601C801B5010E9404
:101B4000E60B8CE06E2D0E94660C8DE06F2D0E94DE
:101B5000660C80E86EE140E40E94C90B02C000E020
:101B600010E0C80127960FB6F894DEBF0FBECDBFB8
:101B7000CF91DF911F910F91FF90EF90DF90CF9069
:101B8000BF90AF900895EF92FF920F931F93CF9362
:101B9000DF93EC018B01682F6F5F80E10E94660C80
:101BA0009E012F5F354E81E1632F0E94660C6C2FE2
:101BB000600F82E10E94660CC050D64EC00FD11F4C
:101BC00083E17E016F2D0E94660C80EA6CE140E2A9
:101BD0000E94C90B80E86FE140E20E94C90B8CE1D2
:101BE0000E94550C85FFFBCF87E10E94550CC82F42
:101BF000D0E086E10E94550C382F20E0C22BD32B79
:101C0000CE01DF91CF911F910F91FF90EF9008953A
:101C1000CF92DF92EF92FF920F931F93DF93CF93B8
:101C200000D000D0CDB7DEB78C016B0182E060E060
:101C30004C830E94660C83E06AE10E94660CE12CF2
:101C4000AAE1FA2EE00EF11E86E06E2D0E94660CCF
:101C500087E06F2D0E94660C8EE0898381E090E022
:101C6000BE016F5F7F4F0E94100CC801B6010E9439
:101C7000100C4C81442309F478C0E42E40FF17C0B7
:101C80008EE090E064E170E00E94C30D9B838A8344
:101C900082E069E10E94660C83E06AE10E94660CC2
:101CA00082E090E0BE016E5F7F4F0E94100CE1FE6B
:101CB0005CC00252104082E290E0B8010E94C30D65
:101CC000F60140E050E020E030E060E070E0A28DFE
:101CD0006A0F711DA38D2A0F311D4E5F5F4F329623
:101CE00048305105A1F7412F5527460F571FF601E0
:101CF00067891070060F111D020F131F212F332744
:101D0000420F531F342F22271070202B312B452FC9
:101D10005527240F351F322723273227809590958A
:101D2000820F931F9B838A838217930718F401966F
:101D30009B838A838A819B81809590959B838A83EC
:101D40008E010E5F1F4FE2FE03C082E069E202C017
:101D500082E063E30E94660C83E06AE10E94660C05
:101D600082E090E0B8010E94100C8FE10E94290CE3
:101D700080EA6CE148E00E94C90B80E86FE148E02E
:101D80000E94C90B8CE10E94550C81FF05C080E8C0
:101D90006FE148E00E94C90B0F900F900F900F90D9
:101DA000CF91DF911F910F91FF90EF90DF90CF9037
:101DB00008952FEF2ABB21B3246621BB9598929AF0
:101DC00027B3236027BB28B3236028BB96989C01C8
:101DD000442755272BBB969AC09896987BBB969A1A
:101DE000C198C09A96986BBB969A88B38C7F88BB33
:101DF00092980895BF92CF92DF92EF92FF920F9345
:101E00001F93E82FEE0FEE0FAE2FB0E0AF54BF4F91
:101E1000DC90EF5FAE2FB0E0AF54BF4FBC90EF5FF0
:101E2000F0E0EF54FF4FC080EE24FF248701C8018B
:101E3000B7010E94D90E8A9A929888B38C7F88BB8A
:101E4000A89580E89CE0BBBA9698969ADBBA9698DB
:101E5000969ACBBA9698969ADBBA9698969A0197E4
:101E600091F780E290E0A0E0B0E0E80EF91E0A1FD2
:101E70001B1F90EAE91695E0F90690E0090790E04B
:101E80001907A9F6959A1F910F91FF90EF90DF9097
:101E9000CF90BF900895DF92EF92FF920F931F9320
:101EA000EE24FF248701DD24DA94C801B7010E94E3
:101EB000D90E8A9A929888B38C7F88BBDABA1BBAFB
:101EC000A89580E89CE09698969A9698969A969807
:101ED000969A9698969A0197B1F780E290E0A0E0E2
:101EE000B0E0E80EF91E0A1F1B1F90EAE91695E004
:101EF000F90690E0090790E01907B9F6959A1F9145
:101F00000F91FF90EF90DF900895BF92CF92DF92F4
:101F1000EF92FF920F931F93E82FEE0FEE0FAE2F6D
:101F2000B0E0AF54BF4FDC90EF5FAE2FB0E0AF54E6
:101F3000BF4FBC90EF5FF0E0EF54FF4FC08030E444
:101F4000E32E3EE7F32E35E0032F112DC801B70134
:101F50000E94D90E8A9A929888B38C7F88BBA895E4
:101F600080ECBBBA9698969ADBBA9698969ACBBABA
:101F70009698969ADBBA9698969A815091F780E255
:101F800090E0A0E0B0E0E80EF91E0A1F1B1F90EEE3
:101F9000E91693E8F90695E0090790E01907B1F60C
:101FA000959A1F910F91FF90EF90DF90CF90BF9087
:101FB0000895EF92FF920F931F9340E4E42E4EE7B3
:101FC000F42E45E0042F112DC801B7010E94D90E4F
:101FD0008A9A929888B38C7F88BB1BBAA89580EFA9
:101FE0009698969A9698969A9698969A9698969A79
:101FF0008150B1F780E290E0A0E0B0E0E80EF91E79
:102000000A1F1B1F90EEE91693E8F90695E00907F1
:1020100090E01907C9F61F910F91FF90EF90089576
:102020008F929F92AF92BF92CF92DF92EF92FF92E8
:102030000F931F93DF93CF930F92CDB7DEB7220F8D
:10204000220F440F440FE22FF0E0EF54FF4FC08007
:102050002F5FE22FF0E0EF54FF4FB0802F5FA22FF1
:10206000B0E0AF54BF4FAC90A42FB0E0AF54BF4F1F
:10207000DC904F5FA42FB0E0AF54BF4F9C904F5FF8
:10208000E42FF0E0EF54FF4F808054E0000F111F69
:102090005A95E1F7780100E010E02091A407309113
:1020A000A5074091A6075091A707E20EF31E041F53
:1020B000151F9EE5899FC0011124860F911D8F5B1E
:1020C0009B439C01B901882777FD8095982F43EAAF
:1020D00056E024EE0E94CE0420E0C801B701298317
:1020E0000E94D90E2981822FE82FF0E0ED55F94F9B
:1020F000408134A198E047FD15C037FD08C01BBAE8
:102100009698969A9698969A9698969A15C09BBA8B
:102110009698969ADBBA9698969A8BBA9698969ACB
:10212000DBBA0AC0BBBA9698969ACBBA9698969A9A
:10213000ABBA9698969ACBBA9698969A915019F00F
:10214000440F330FD8CF8E5F843270F22F5F80E25E
:1021500090E0A0E0B0E0E80EF91E0A1F1B1F22303D
:1021600009F0BBCF959A0F90CF91DF911F910F91FE
:10217000FF90EF90DF90CF90BF90AF909F908F90A7
:1021800008958F929F92AF92BF92CF92DF92EF927B
:10219000FF920F931F93DF93CF930F92CDB7DEB7CC
:1021A000220F220F440F440FE22FF0E0EF54FF4FB5
:1021B000C0802F5FE22FF0E0EF54FF4FB0802F5F21
:1021C000A22FB0E0AF54BF4FAC90A42FB0E0AF54FB
:1021D000BF4FDC904F5FA42FB0E0AF54BF4F9C9037
:1021E0004F5FE42FF0E0EF54FF4F808074E0000F6A
:1021F000111F7A95E1F7780100E010E02091A40723
:102200003091A5074091A6075091A707E20EF31E53
:10221000041F151F9EE5899FC0011124860F911D83
:1022200081569B439C01B901882777FD8095982FA3
:10223000605F784D8F4F9F4F43EA56E024EE0E9437
:10224000CE0420E0C801B70129830E94D90E29815C
:10225000822FE82FF0E0ED55F94F4081E25BFF4F10
:10226000308198E047FD15C037FD08C01BBA96982D
:10227000969A9698969A9698969A15C09BBA96981A
:10228000969ADBBA9698969A8BBA9698969ADBBAF3
:102290000AC0BBBA9698969ACBBA9698969AABBA59
:1022A0009698969ACBBA9698969A915019F0440FB0
:1022B000330FD8CF8D5F8E3460F22F5F80E290E0D5
:1022C000A0E0B0E0E80EF91E0A1F1B1F233009F042
:1022D000B9CF959A0F90CF91DF911F910F91FF90F9
:1022E000EF90DF90CF90BF90AF909F908F90089528
:1022F0008F929F92AF92BF92CF92DF92EF92FF9216
:102300000F931F93DF93CF930F92CDB7DEB7220FBA
:10231000220F440F440FE22FF0E0EF54FF4FC08034
:102320002F5FE22FF0E0EF54FF4FB0802F5FA22F1E
:10233000B0E0AF54BF4FAC90A42FB0E0AF54BF4F4C
:10234000DC904F5FA42FB0E0AF54BF4F9C904F5F25
:10235000E42FF0E0EF54FF4F8080E4E0000F111F06
:10236000EA95E1F7780100E010E02091A4073091B0
:10237000A5074091A6075091A707E20EF31E041F80
:10238000151F9EE5899FC0011124860F911D8F5B4B
:102390009B439C01B901882777FD8095982F43EADC
:1023A00056E024EE0E94CE0420E0C801B701298344
:1023B0000E94D90E2981822FE82FF0E0ED55F94FC8
:1023C000308198E037FD0BC09BBA9698969ADBBA9D
:1023D0009698969A8BBA9698969ADBBA0AC0BBBA28
:1023E0009698969ACBBA9698969AABBA9698969AE9
:1023F000CBBA9698969A915011F0330FE3CF8E5F37
:102400008432D0F22F5F80E290E0A0E0B0E0E80EEE
:10241000F91E0A1F1B1F223041F6959A0F90CF918B
:10242000DF911F910F91FF90EF90DF90CF90BF90C1
:10243000AF909F908F9008958F929F92AF92BF928E
:10244000CF92DF92EF92FF920F931F93DF93CF9380
:102450000F92CDB7DEB7220F220F440F440FE22FA9
:10246000F0E0EF54FF4FC0802F5FE22FF0E0EF5419
:10247000FF4FB0802F5FA22FB0E0AF54BF4FAC90A2
:10248000A42FB0E0AF54BF4FDC904F5FA42FB0E05B
:10249000AF54BF4F9C904F5FE42FF0E0EF54FF4FDD
:1024A0008080F4E0000F111FFA95E1F7780100E059
:1024B00010E02091A4073091A5074091A607509104
:1024C000A707E20EF31E041F151F9EE5899FC0019A
:1024D0001124860F911D81569B439C01B9018827C9
:1024E00077FD8095982F605F784D8F4F9F4F43EA1F
:1024F00056E024EE0E94CE0420E0C801B7012983F3
:102500000E94D90E2981822FE82FF0E0ED55F94F76
:10251000308198E037FD0BC09BBA9698969ADBBA4B
:102520009698969A8BBA9698969ADBBA0AC0BBBAD6
:102530009698969ACBBA9698969AABBA9698969A97
:10254000CBBA9698969A915011F0330FE3CF8D5FE6
:102550008E34D0F22F5F80E290E0A0E0B0E0E80E91
:10256000F91E0A1F1B1F233041F6959A0F90CF9139
:10257000DF911F910F91FF90EF90DF90CF90BF9070
:10258000AF909F908F9008958F929F92AF92BF923D
:10259000CF92DF92EF92FF920F931F93CF93DF932F
:1025A000440F440F660F660FC42FD0E0CF54DF4FA7
:1025B000C8804F5FC42FD0E0CF54DF4FB8804F5F4B
:1025C000A42FB0E0AF54BF4FAC90A62FB0E0AF54F3
:1025D000BF4FDC906F5FA62FB0E0AF54BF4F9C9011
:1025E0006F5FE62FF0E0EF54FF4F8080A4E0220FF2
:1025F000331FAA95E1F7790100E010E02091A407CC
:102600003091A5074091A6075091A707E20EF31E4F
:10261000041F151FBC016152704080E090E06053C0
:102620007F4D8F4F9F4F43EA56E028E20E94CE0431
:10263000C801B7010E94D90EE3EAF6E0219193891F
:1026400088E027FD15C097FD08C01BBA9698969A9A
:102650009698969A9698969A15C09BBA9698969A36
:10266000DBBA9698969A8BBA9698969ADBBA0AC075
:10267000BBBA9698969ACBBA9698969AABBA969811
:10268000969ACBBA9698969A815019F0220F990F84
:10269000D8CF86E0E53BF80789F6959ADF91CF9190
:1026A0001F910F91FF90EF90DF90CF90BF90AF9070
:1026B0009F908F9008958F929F92AF92BF92CF92EA
:1026C000DF92EF92FF920F931F93CF93DF93440F0C
:1026D000440F660F660FC42FD0E0CF54DF4FC88081
:1026E0004F5FC42FD0E0CF54DF4FB8804F5FA42F8F
:1026F000B0E0AF54BF4FAC90A62FB0E0AF54BF4F87
:10270000DC906F5FA62FB0E0AF54BF4F9C906F5F1F
:10271000E62FF0E0EF54FF4F8080B4E0220F331F2C
:10272000BA95E1F7790100E010E02091A40730911B
:10273000A5074091A6075091A707E20EF31E041FBC
:10274000151FBC016152704080E090E060537F4DE6
:102750008F4F9F4F43EA56E028E20E94CE04C80103
:10276000B7010E94D90EE3EAF6E0919188E097FD67
:102770000BC09BBA9698969ADBBA9698969A8BBAA3
:102780009698969ADBBA0AC0BBBA9698969ACBBA34
:102790009698969AABBA9698969ACBBA9698969A35
:1027A000815011F0990FE3CF86E0E53BF807E9F699
:1027B000959ADF91CF911F910F91FF90EF90DF904D
:1027C000CF90BF90AF909F908F900895BF92CF927F
:1027D000DF92EF92FF920F931F93CF93DF93E90164
:1027E000440F440F660F660FE42FF0E0EF54FF4FE5
:1027F00000814F5FE42FF0E0EF54FF4FE0804F5F28
:10280000A42FB0E0AF54BF4FDC90A62FB0E0AF5480
:10281000BF4FFC906F5FA62FB0E0AF54BF4FCC907E
:102820006F5FE62FF0E0EF54FF4FB08014E0CC0F65
:10283000DD1F1A95E1F72091A4073091A507C20F7B
:10284000D31F28E230E0829FF001839FF00D929F1A
:10285000F00D1124E057FD4FA3EAB6E081918D936E
:1028600086E0AB3CB807D1F710E0BE0180E090E015
:102870000E94D90E812FE82FF0E0ED55F94F3081FD
:10288000228998E037FD15C027FD08C01BBA96982D
:10289000969A9698969A9698969A15C0CBBA9698C4
:1028A000969AFBBA9698969ABBBA9698969AFBBA5D
:1028B0000AC0EBBA9698969A0BBB9698969ADBBA92
:1028C0009698969A0BBB9698969A915019F0330F5A
:1028D000220FD8CF8F5F823170F21F5FA096123027
:1028E00021F6959ADF91CF911F910F91FF90EF9074
:1028F000DF90CF90BF900895BF92CF92DF92EF927A
:10290000FF920F931F93CF93DF93E901440F440F7E
:10291000660F660FE42FF0E0EF54FF4F00814F5F2A
:10292000E42FF0E0EF54FF4FE0804F5FA42FB0E0C2
:10293000AF54BF4FDC90A62FB0E0AF54BF4FFC9018
:102940006F5FA62FB0E0AF54BF4FCC906F5FE62F04
:10295000F0E0EF54FF4FB08024E0CC0FDD1F2A954C
:10296000E1F72091A4073091A507C20FD31F28E2F9
:1029700030E0829FF001839FF00D929FF00D1124B3
:10298000E057FD4FA3EAB6E081918D9386E0AB3C22
:10299000B807D1F710E0BE0180E090E00E94D90EA8
:1029A000812FE82FF0E0ED55F94F208198E027FDC9
:1029B0000BC0CBBA9698969AFBBA9698969ABBBAE1
:1029C0009698969AFBBA0AC0EBBA9698969A0BBB61
:1029D0009698969ADBBA9698969A0BBB9698969A82
:1029E000915029F78F5F8231E0F21F5FA09612307D
:1029F00091F6959ADF91CF911F910F91FF90EF90F3
:102A0000DF90CF90BF900895BC0134E0660F771F30
:102A10003A95E1F780E090E02091A4073091A50776
:102A20004091A6075091A707620F731F841F951F3F
:102A30000E94D90E8A9A929888B38C7F88BB1BBA61
:102A4000A89582E10CC09698969A9698969A969830
:102A5000969A9698969A9150B1F7815011F098E015
:102A6000F2CF959A0895BC0144E0660F771F4A950E
:102A7000E1F780E090E02091A4073091A507409114
:102A8000A6075091A707620F731F841F951F0E940E
:102A9000D90E8A9A929888B38C7F88BB1BBAA89566
:102AA0008AE10CC09698969A9698969A9698969AD5
:102AB0009698969A9150B1F7815011F098E0F2CF24
:102AC000959A0895FF920F931F93E82FEE0FEE0F44
:102AD000AE2FB0E0AF54BF4F1C91EF5FAE2FB0E010
:102AE000AF54BF4FFC90EF5FF0E0EF54FF4F008119
:102AF00054E0660F771F5A95E1F780E090E020914F
:102B0000A4073091A5074091A6075091A707620F2F
:102B1000731F841F951F0E94D90E8A9A929888B3BA
:102B20008C7F88BB1BBAA89582E110C0FBBA96982F
:102B3000969A1BBB9698969A0BBB9698969A1BBB37
:102B40009698969A915091F7815011F098E0EECFB7
:102B5000959A1F910F91FF900895FF920F931F93E5
:102B6000E82FEE0FEE0FAE2FB0E0AF54BF4F1C9129
:102B7000EF5FAE2FB0E0AF54BF4FFC90EF5FF0E0DF
:102B8000EF54FF4F0081E4E0660F771FEA95E1F70D
:102B900080E090E02091A4073091A5074091A6071E
:102BA0005091A707620F731F841F951F0E94D90EB3
:102BB0008A9A929888B38C7F88BB1BBAA8958AE1C1
:102BC00010C0FBBA9698969A1BBB9698969A0BBB28
:102BD0009698969A1BBB9698969A915091F7815029
:102BE00011F098E0EECF959A1F910F91FF90089504
:102BF00010BC83E389B988E18AB986E880BD08956D
:102C00005D9BFECF8CB95E9BFECF5E9A08955F9B65
:102C1000FECF8CB10895EF92FF92CF93DF93E82E11
:102C2000E7017E01F92EE70102C00E94001689919A
:102C30008823D9F78DE00E9400168AE00E940016D2
:102C4000DF91CF91FF90EF900895629FD001739F25
:102C5000F001829FE00DF11D649FE00DF11D929F38
:102C6000F00D839FF00D749FF00D659FF00D992777
:102C7000729FB00DE11DF91F639FB00DE11DF91F9B
:0C2C8000BD01CF0111240895F894FFCF8E
:102C8C00456E7465722074686520566964656F00C2
:102C9C0054696D65723120446F6E65004E657477B2
:102CAC006F726B20446F6E6500494E543220446F36
:102CBC006E6500566964656F20446F6E6500436FE6
:102CCC006E66696775726174696F6E20446F776E9A
:102CDC0000EB808000D21092006ACADE00515AF0DC
:102CEC000079F06E009F4BC500AAA6100091362209
:102CFC000029F06E00306D680010808000BBB6D3E8
:102D0C00ADCAB9D3C3D7D6B7FBB5FEBCD3C6F76F24
:102D1C006C640000000000000000000000000000D7
:102D2C000000000000000000000000000000000097
:102D3C00000000000000000000000000004F4B00ED
:102D4C004552524F5200485454502F312E3120329C
:102D5C003030204F4B0D0A5365727665723A206EF7
:102D6C0067696E782F302E382E35340D0A436F6E0E
:102D7C0074656E742D547970653A20746578742F6F
:102D8C0068746D6C3B20636861727365743D676237
:102D9C00323331320D0A436F6E74656E742D4C658F
:102DAC006E6774683A203131300D0A436F6E6E6570
:102DBC006374696F6E3A206B6565702D616C697612
:102DCC00650D0A4163636570742D52616E6765739E
:102DDC003A2062797465730D0A0D0A3C68746D6C47
:102DEC003E0A3C686561643E0A3C7469746C653EDD
:102DFC00D7D6B7FBB5FEBCD3C6F73C2F7469746C41
:102E0C00653E0A3C2F686561643E0A3C626F6479DA
:102E1C003E0A3C68313EC4E3BAC3A3ACD5E2CAC790
:102E2C0041546D65676133322E3C2F68313E0A3C4C
:102E3C002F626F64793E0A3C2F68746D6C3E0A00F9
:102E4C004854545000493243204552524F5200735B
:102E5C0074617274206572726F7200726573746142
:102E6C007274206572726F7200777269746520617A
:102E7C00646472206572726F7200726561642061A5
:102E8C00646472206572726F72007472616E736D1D
:102E9C0069742064617461206572726F720072656E
:102EAC0061642064617461206572726F72000A0043
:00000001FF
