:107000000C942A380C9447380C9447380C94473821
:107010000C9447380C9447380C9447380C944738F4
:107020000C9447380C9447380C9447380C944738E4
:107030000C9447380C9447380C9447380C944738D4
:107040000C9447380C9447380C9447380C944738C4
:107050000C94473811241FBECFE5D8E0DEBFCDBF6A
:1070600010E0A0E6B0E0E8E9F6E702C005900D9276
:10707000A43BB107D9F711E0A4EBB0E001C01D9229
:10708000AA33B107E1F70E9473390C944A3B0C9480
:107090000038DF93CF9300D0CDB7DEB79A838983D2
:1070A0008091B6009091B70023E0FC012093570037
:1070B000E89587E590E0FC018081882F90E0817061
:1070C00090708823B1F7109239012EC08091390158
:1070D000882F90E020913901222F30E049815A8198
:1070E000240F351FF9012081422F50E020913901F2
:1070F000222F30E02F5F3F4F69817A81260F371FA3
:10710000F9012081222F30E0322F2227242B352B2A
:1071100041E0FC01090140935700E895112480915A
:1071200039018E5F8093390180913901882374F68B
:107130008091B6009091B70025E0FC0120935700A4
:10714000E89587E590E0FC018081882F90E08170D0
:1071500090708823B1F70F900F90CF91DF91089531
:10716000DF93CF93CDB7DEB781E180935700E895E9
:10717000E0E0F0E00995CF91DF910895DF93CF93A0
:107180000F92CDB7DEB789838CE290E02981FC01B4
:10719000208300008BE290E0FC018081882F90E04A
:1071A000807490700097B1F38BE290E02BE230E0B6
:1071B000F90120812064FC0120830F90CF91DF91A1
:1071C0000895DF93CF93CDB7DEB700008BE290E058
:1071D000FC0180818823D4F78CE290E0FC0180815F
:1071E000CF91DF910895DF93CF9300D0CDB7DEB775
:1071F0009A8389830CC089819A81FC0120818981CD
:107200009A8101969A838983822F0E94BE38898150
:107210009A81FC018081882371F78DE00E94BE383D
:107220008AE00E94BE380F900F90CF91DF910895B1
:10723000DF93CF93CDB7DEB728970FB6F894DEBFB4
:107240000FBECDBF98878F831E821D8280E8898301
:1072500035C08F819885FC018081882F90E0982F20
:1072600088272D813E81822793279E838D8388E006
:107270008A8319C08D819E81880F991F9C838B837F
:107280008D819E81992344F42B813C8181E290E1A0
:10729000822793279C838B838B819C819E838D8304
:1072A0008A8181508A838A81882321F78F819885FA
:1072B000019698878F83898181508983898188236A
:1072C00041F68D819E81892F9927809338018D8188
:1072D0008093B50028960FB6F894DEBF0FBECDBFE1
:1072E000CF91DF910895FF920F931F93DF93CF9378
:1072F000CDB7DEB729970FB6F894DEBF0FBECDBF6E
:10730000F89488E190E02EE00FB6F894A89581BD3E
:107310000FBE21BD8AE490E024E83EE1FC01318308
:1073200020838FE490E0FC0110828EE490E02DE059
:10733000FC0120838BE290E0FC0110828AE290E065
:1073400028E1FC01208380E490E026E8FC01208312
:1073500080E490E0FC01108289E290E023E3FC01EC
:10736000208384E68B8304C000008B8181508B8353
:107370008B818823C9F785E690E00E94F33884E189
:1073800089831092B50001C00000A89588E590E0BF
:10739000FC018081882F90E080719070009701F14E
:1073A00088E590E028E530E0F90120812061FC01CA
:1073B00020838091B500853039F484E890E00E9404
:1073C000F3388AE089832CC089818150898389813F
:1073D000882331F48BE790E00E94F3380E94B038A4
:1073E0008BE290E0FC018081882374F68CE290E0CF
:1073F000FC0120818091B500882F90E0805A9F4F3A
:10740000FC018081281731F48091B5008F5F809353
:10741000B500BBCF1092B500B8CF000001C000008E
:1074200088E590E0FC018081882F90E08071907069
:107430000097C1F088E590E028E530E0F90120816F
:107440002061FC01208383E40E94BE388981815041
:1074500089838981882331F48BE790E00E94F33897
:107460000E94B038A8958BE290E0FC0180818823CF
:10747000A4F68CE290E0FC018081813081F68EE4FC
:1074800090E0FC0110821A821092B40019821092CE
:10749000B7001092B6008A818F5F8A830E94E1381C
:1074A000809338010E94E13880958093B5008091E7
:1074B00038019A81981709F0BEC08091B5009A8171
:1074C000981709F0B8C080E88C8313C0F090B4001E
:1074D0000F2D10E00E94E138282FC80188549F4FDB
:1074E000FC0120838F2D8F5F8093B4008C818150AD
:1074F0008C838C81882351F70E94E1388D830E9410
:10750000E1388E838091B400882F90E080589040BD
:1075100088549F4F0E941839809138019D81981797
:1075200009F082C08091B5009E81981709F07CC057
:107530008091B6009091B700F0E780309F07A8F4E3
:107540008091B40088239CF488EB90E00E94493835
:107550008091B6009091B70080589F4F9093B700EC
:107560008093B6001092B40002C01092B4008091D3
:10757000B6009091B70020E78030920708F04EC027
:1075800081E180935700E89581E08093B5001092E7
:10759000390126C080913901282F30E08091B60052
:1075A0009091B700820F931F8058904098878F83E7
:1075B0008F819885FC011491198729858091390163
:1075C000882F90E088549F4FFC018081281719F084
:1075D0001092B50009C0809139018F5F8093390105
:1075E000809139018823B4F68091B500882329F071
:1075F00086E00E94BE38198215C085E10E94BE381F
:1076000089818F5F89838091B6009091B7008058FF
:1076100090409093B7008093B60004C086E00E942B
:10762000BE381982A8950DC085E10E94BE388981B7
:107630008F5F898306C085E10E94BE3889818F5F94
:1076400089838981843030F40E94E138843009F0E4
:1076500022CF01C0000086E00E94BE3889818823C5
:10766000A1F486E990E00E94F3380E94B03880E0EF
:1076700090E029960FB6F894DEBF0FBECDBFCF9134
:10768000DF911F910F91FF90089586EA90E00E948C
:08769000F338FFCFF894FFCF9F
:10769800415652554277616974696E6720666F7208
:1076A8002070617373776F72642E0074696D656FF3
:1076B80075742E0077616974696E6720666F722031
:1076C800646174612E0075706461746520737563FC
:1076D800636573732E0075706461746520666169F3
:0476E8006C2E000004
:040000030000700089
:00000001FF
