:107000000C942A380C9447380C9447380C94473821
:107010000C9447380C9447380C9447380C944738F4
:107020000C9447380C9447380C9447380C944738E4
:107030000C9447380C9447380C9447380C944738D4
:107040000C9447380C9447380C9447380C944738C4
:107050000C94473811241FBECFE5D8E0DEBFCDBF6A
:1070600010E0A0E6B0E0E2E0F4E702C005900D9287
:10707000A43BB107D9F711E0A4EBB0E001C01D9229
:10708000AA33B107E1F70E94CA380C94FF390C9477
:1070900000380F931F936091B6007091B70043E0E2
:1070A000FB0140935700E89507B600FCFDCF109216
:1070B000390101E015C0E12FF0E0DC01AE0FBF1F88
:1070C00011963C91119720E04C9150E0422B532BAC
:1070D0000A0100935700E89511241E5F10933901AF
:1070E0001091390117FFE7CF85E0FB01809357002E
:1070F000E89507B600FCFDCF1F910F91089581E13F
:1071000080935700E895E0E0F0E0099508958CB988
:107110005E9BFECF5E9A08955F9BFECF8CB1089573
:10712000EF92FF92CF93DF93E82EE7017E01F92ED5
:10713000E70102C00E94873889918823D9F78DE042
:107140000E9487388AE00E948738DF91CF91FF90B4
:10715000EF900895482F592FFA01A0E880E090E0C1
:1071600041E250E1319120E0BC0162277327B8E091
:1071700001C0BC01CB01880F991F77FF02C0842793
:107180009527B150B1F7A15069F7909338018093DA
:10719000B5000895CF92DF92EF92FF920F931F9365
:1071A000F8942EE088E190E00FB6F894A89581BDA0
:1071B0000FBE21BD84E89EE19BBD8ABD1FBC8DE052
:1071C0008EBD1BB888E18AB986E880BD10BC83E318
:1071D00089B984E600008150E9F785E690E00E94D5
:1071E00090381092B50015E0A89508B604FE0FC0BF
:1071F00088B7806188BF8091B5008530D9F0115083
:1072000031F48BE790E00E9490380E947F385F9BBA
:10721000EBCF2CB18091B500E82FF0E0E05AFF4FA2
:107220009081291721F48F5F8093B500DDCF1092F4
:10723000B500DACF84E890E00E9490381AE008B6F2
:1072400004FE0EC088B7806188BF83E40E9487383F
:10725000115031F48BE790E00E9490380E947F3803
:10726000A8955F9BECCF8CB1813049F71EBC109282
:10727000B4001092B7001092B60000E010E041E1B7
:10728000E42EFF24F3940F5F0E948C388093380122
:107290000E948C3880958093B50090913801091731
:1072A00009F089C0081709F086C030E8D32EC090D5
:1072B000B4000E948C38EC2DF0E0E854FF4F80833E
:1072C000C394C092B400DA9491F70E948C38C82E0F
:1072D0000E948C38D82E2091B40030E0C901885C1F
:1072E0009F4F0E94AA3880913801C81609F063C0E8
:1072F0008091B500D81609F05EC08091B6009091DB
:10730000B70020E78030920790F48091B40087FFA7
:1073100010C088EB90E00E9449388091B6009091AF
:10732000B70080589F4F9093B7008093B60010929B
:10733000B4002091B6003091B70080E720303807C4
:10734000A0F5E0925700E895F092B50040E0205893
:10735000304014C0842F90E0F901E80FF91FE49148
:10736000542F5F5F88549F4FDC018C91E81729F000
:10737000409339011092B50005C0452F47FFEACF71
:10738000409339018091B500882379F485E10E940A
:1073900087381F5F8091B6009091B7008058904069
:1073A0009093B7008093B60004C086E00E948738AF
:1073B00010E0A89504C085E10E9487381F5F143053
:1073C00028F40E948C38843009F05DCF86E00E945A
:1073D0008738112379F486E990E00E9490380E9462
:1073E0007F3880E090E01F910F91FF90EF90DF9049
:1073F000CF90089586EA90E00E949038FFCFF894ED
:02740000FFCFBC
:1074020048656C6C6F77616974696E6720666F722C
:107412002070617373776F72642E0074696D656F8B
:1074220075742E0077616974696E6720666F7220C9
:10743200646174612E007570646174652073756394
:10744200636573732E00757064617465206661698B
:047452006C2E00009C
:040000030000700089
:00000001FF
